:020000040800F2
:100000000030002009380008893100088D310008CF
:100010009131000895310008993100080000000076
:100020000000000000000000000000009D310008FA
:10003000A131000800000000A5310008A931000826
:10004000593800085938000859380008593800084C
:10005000593800085938000859380008593800083C
:10006000593800085938000859380008593800082C
:10007000593800085938000859380008593800081C
:10008000593800085938000859380008593800080C
:1000900059380008593800085938000859380008FC
:1000A00059380008593800085938000859380008EC
:1000B0005938000859380008000000005938000875
:1000C00059380008000000000000000059380008FE
:1000D0000000000059380008593800085938000855
:1000E00059380008593800080000000000000000DE
:1000F0000000000000000000000000000000000000
:1001000000000000000000000000000000000000EF
:1001100000000000000000005938000859380008AD
:1001200000000000000000000000000000000000CF
:1001300000000000000000000000000000000000BF
:10014000593800085938000800000000000000007D
:10015000000000000000000000000000000000009F
:10016000000000000000000000000000000000008F
:10017000000000000000000000000000000000007F
:080180000000000059380008DE
:1001900010B5054C237833B9044B13B10448AFF3C1
:1001A00000800123237010BD7000002000000000BB
:1001B000DC48000808B5034B1BB103490348AFF303
:1001C000008008BD0000000074000020DC4800082A
:1001D00001F0FF01102A2BDB10F0070F08D010F8F8
:1001E000013B013A8B422DD010F0070F42B3F6D1FC
:1001F000F0B441EA012141EA014122F007047FF015
:1002000000070023F0E80256083C85EA010586EA6B
:10021000010685FA47F5A3FA87F586FA47F6A5FAA7
:1002200087F68EB9EED1F0BC01F0FF0102F00702B3
:1002300032B110F8013B013A83EA010313B1F8D15E
:100240000020704701387047002D06BF354603383F
:10025000073815F0010F07D1013015F4807F02BF78
:10026000013015F4C03F0130F0BC0138704700BFC9
:1002700003685A004CBF43F0004323F00043184486
:10028000704700BF61B32DE9F84F01F1FF3A904686
:100290000646D146002707EB090404EBD47464102A
:1002A000E50071190846FFF7E3FFA245834605F113
:1002B0000800304409D0FFF7DBFFC34500F1FF30F1
:1002C00005D8404509D2671CE5E7C34505D9A742D3
:1002D00002D004F1FF39DEE700210846BDE8F88FBF
:1002E00008467047012807D0022807D0044B002891
:1002F0000CBF1846002070470248704702487047FC
:10030000E9090008ED090008F109000830B5244B9F
:1003100083B004468D1E7BB301A92846AFF300804D
:1003200020B301992A46FFF7ADFF0146F0B1FFF770
:100330009FFF4B68A064012B12D0002B01F1040039
:1003400020DBFFF795FF0023E06423650368002BA3
:100350001CDBFFF78DFF00232061184603B030BD82
:10036000002323610523184603B030BD0023236119
:100370000923184603B030BD0A490B48091AC910B1
:100380000191CFE70123E0642365DFE7C3F3036056
:10039000FFF7A8FF0028206114BF00230923DCE732
:1003A000000000006C4B00086C4A00080368DA0784
:1003B00010B5044606D49B0700F1480009D500F0AB
:1003C00051FC2368590709D51A070ED5DB0613D54A
:1003D00010BD00F03FFC23685907F5D404F1D000AC
:1003E00000F048FC23681A07F0D404F5A87000F068
:1003F00049FC2368DB06EBD404F5E870BDE8104047
:1004000000F084BC036803B103441846704700BF82
:1004100009207047704700BF70B504460D4608E0DC
:100420002B6C63612A4623692146012098470828DE
:1004300008D1296C2046FFF769FF06460028EFD057
:1004400004F000FA0728FBD13046296CFFF7E2FFE1
:10045000281D00F0F3FB00BF2DE9F0470C1D0546F9
:1004600092460FCCADF5727D03AE0FC60FCC0FC612
:100470000FCC0FC694E80F0002ACD5F80C80D5F86D
:10048000189086E80F0000232846216C2360FFF7B0
:100490003DFFBAF1000F074614BF0A2609267FB1B7
:1004A000A36B46F010018DE810022A466364012018
:1004B0002B46C04778BB38460DF5727DBDE8F08706
:1004C000236C6B614FF4F07221467AA803F0F0F9C7
:1004D0002B697AAA294630469847889B82468DE840
:1004E0001002314663642A462B460120C04790B96A
:1004F0004FF4F0727AA9204603F0DAF9BAF1080F46
:1005000006D1216C2846FFF701FF09260746C6E7FA
:10051000BAF1070F05D0092738460DF5727DBDE801
:10052000F0873846216CFFF775FF03A800F086FBC3
:10053000406C7047F0B5CB6B0B640E1D0F46044644
:100540000FCEF9B001AD0FC50FCE0FC50FCE0FC541
:1005500096E80F004FF0FF3685E80F00009606E0A2
:1005600023696A46214698470828054608D110990C
:100570002046FFF7CBFE0028F2D0092079B0F0BD6D
:100580006846FFF713FF062DF7D139462046FFF7DF
:1005900043FF00BF30B4DD6BC160826119461D644A
:1005A000002230BC58E700BF70B5C66843690B64D1
:1005B00026B10122FFF750FF04F044F903690A460F
:1005C00004460D46014602209847072807D0082810
:1005D00003D129462046FFF71FFF04F033F93046C8
:1005E000296CFFF717FF281D00F028FBC2681AB11D
:1005F000CA6B0A6400222FE79CE700BF704700BF68
:10060000836813B1014601201847704700B50429DB
:1006100007D8DFE801F00309060909000BB90F2A22
:1006200005D902205DF804FB01205DF804FB00EB16
:10063000820218465368019A13605DF804FB00BFFC
:1006400010B584B0002303AC0A4600941946FFF7A6
:10065000DDFF039804B010BD00B5042907D8DFE81A
:1006600001F00309060909000BB90F2A05D9022078
:100670005DF804FB01205DF804FB019900EB8202A8
:100680000968516018465DF804FB00BF10B584B0DE
:1006900004AC002344F8042D0A4600941946FFF7E1
:1006A000DBFF04B010BD00BFF0B5D36B1364151DA4
:1006B00007460E460FCDADF50F7D17AC0FC40FCD1D
:1006C0000FC40FCD0FC495E80F004FF0FF3584E83D
:1006D0000F00169510E016A8FFF7D8FF314616A8B0
:1006E000B84716AA694678B9049B08209847052898
:1006F00004460AD0092807D026996846FFF706FE67
:100700006A460C210028E6D0092416A8FFF74EFE01
:1007100020460DF50F7DF0BD2DE9F04F0D46C96C5B
:100720008BB00C1D096807919146089400F0030BEB
:100730001E46002B60D10902032307918DF8256026
:100740008DF824302B6DBBF1020F08BFAC6B13F09A
:10075000010340D1019300F008030393D4F8008013
:10076000B8F1000F39D0022E43D0B4F8008067886A
:100770000434AB6C27F0010A0F2148469A44FFF776
:100780005FFF824533D828F001039A4450452CBFBF
:10079000002001207F0007F0020708F0010847EA67
:1007A0000807012F3ED035D3022F1CD1236823F038
:1007B00000420292BBF1000F76D128B103990029C3
:1007C0007ED0002A00F0A680002B77DB029B01334D
:1007D00004EB8304C2E700230193022E3EDDFFF702
:1007E00017FE002840D009200BB0BDE8F08F002094
:1007F000D0E767680834BCE7022BA3DC0B0CDAB245
:1008000009048DF82530022304EB820407918DF84A
:10081000243097E7BBF1000F02D0002840F0BD80E4
:1008200004349BE7BBF1000F25D1A8B194E80C007C
:10083000991C4FEAD272D6D005F1580101330691C6
:1008400000F0A380201DFFF7DDFD06AB0146284622
:10085000AFF30080002877D108347FE707A9484626
:1008600000F0EEFA0028BED1019B002B5CD10820DD
:100870000BB0BDE8F08F0D2148462F6AFFF7E0FE70
:100880008742E9D1AB6A9C42E6D12046FFF7F0FCF3
:100890000F2102464846FFF7F9FE48462A46002146
:1008A000FFF7F4FE07209FE70D2148462F6AFFF768
:1008B000C7FE874258D02368002B87DA043485E7C7
:1008C000029B3BB305F15803271DCDF810B0DDF8AE
:1008D0000C80DDF808A00596A3461C4602E0B24550
:1008E000B04616D038460694FFF78CFD06AB01469D
:1008F00000222846AFF3008008F1010604370028E3
:10090000EDD0029B059E43455C46DDF810B0D2D188
:1009100000E05C4648460D21FFF792FE069B2862E8
:10092000AC626B6206205FE70F214846FFF788FE46
:100930000E2102464846FFF7A9FE4846294A0F21E4
:10094000FFF7A4FE07204FE707460D214846FFF7B3
:1009500077FE022F28621DD12B46069A43F82C2FD2
:100960006B62AC6206203FE7AB6A9C42A3D10422D3
:100970000027A3180299A962EF622A636B632368B8
:10098000BB421DDB0123019320E748460D21FFF701
:1009900057FE2862069B6B62E3E72046FFF768FC80
:1009A00004340646AC632846AFF3008000283FF4C9
:1009B0001AAF484632460F21FFF768FE072013E7BB
:1009C0000846013004EB8000FFF752FC0F2102467D
:1009D0004846FFF75BFE48462A463946FFF756FE73
:1009E000072001E700000000002395E6012393E6BD
:1009F000022391E6F0B50446C5B004290DD8DFE81E
:100A000001F053030C310F00012B4FEA124695B24F
:100A100062D17219102A40F29B80022045B0F0BDCD
:100A2000002BFAD1102AF8D82368D80600F1C68026
:100A300022AE3046019200F073F9A06B019A0023B8
:100A4000012505FA03F1114203D0016846F823108D
:100A500004300133042BF4D1A063304600F056F982
:100A60000020DBE7032BD8D1150C97B2EB19102B24
:100A7000D3D823681E0700F1B58022AE304600F0BF
:100A800023F9ED00A36B4FB1043D711903EBC700CF
:100A900053F8042B41F8042F8342F9D13046A36365
:100AA00000F0F0F80020B9E7002BB6D1A56B97B2A3
:100AB000201D012606FA03F1394203F1010302D099
:100AC000296801600435102B00F10400F2D112F402
:100AD00000503BD1A563A1E7052B9ED17719202FAC
:100AE0009BD80F2E66D92F46002D3AD12A460027D3
:100AF000002AA06B72DD00EBC202014644A800EBA5
:100B0000C6008C3851F8045B40F8045F9142F9D17B
:100B1000084697B1102E324644A938BF102201EB87
:100B2000C202A2F5C4727900043A00EB810150F8C8
:100B3000045B42F8045F8842F9D1012B48D00F2EA4
:100B4000A16333D917B102A800F094F8002065E73B
:100B50000F2E3FF662AF00272268D10717D4002F6F
:100B600060D02268510745D4012B4DD00F2E06D8F6
:100B700022A8019300F07AF8019B002FB6D002A8BA
:100B8000019300F07BF8019BC6F11002B0E722F060
:100B90000101052B2160019320463BD022F0030286
:100BA00040F8482B00F05AF8019BD8E722A800F043
:100BB00059F8C7E7102FCED9103FCDE723F0100327
:100BC000236004F5E870019200F0AAF8019A2FE77B
:100BD0000431A16322A800F03DF8B7E7002F99D1B6
:100BE0000146AAE723F00803236004F5A87000F08B
:100BF0006BF842E7204622F0040240F8D02B019324
:100C000000F03CF8019BAFE722A8019300F026F822
:100C1000019BB9E741F0020140F8481B00F026F8BB
:100C2000019B9CE7012B03D00F2E3FF65FAF9FE7A0
:100C300022A8019300F012F8019B57E700F134015C
:100C400091E838009C46A6464CF8045D90E8FF0FFA
:100C5000E54600BD90EC210B704700BF80EC210BF6
:100C6000704700BF90EC200B704700BF80EC200B5A
:100C7000704700BFD0EC200B704700BFC0EC200BCA
:100C8000704700BFF0EC0201F0EC0211F0EC022121
:100C9000F0EC0231F0EC0241F0EC0251F0EC0261B8
:100CA000F0EC0271F0EC0281F0EC0291F0EC02A1A8
:100CB000F0EC02B1F0EC02C1F0EC02D1F0EC02E198
:100CC000F0EC02F1704700BFE0EC0201E0EC021131
:100CD000E0EC0221E0EC0231E0EC0241E0EC0251F8
:100CE000E0EC0261E0EC0271E0EC0281E0EC0291E8
:100CF000E0EC02A1E0EC02B1E0EC02C1E0EC02D1D8
:100D0000E0EC02E1E0EC02F1704700BFB0FC0181D1
:100D1000B0FC0191B0FC01A1B0FC01B1704700BF73
:100D2000A0FC0181A0FC0191A0FC01A1A0FC01B1EB
:100D3000704700BFEC4600B52DE900502DE9FF1FBC
:100D40004FF000032DE90C0001A9FFF7F3FBDDF8DC
:100D500040E012B0704700BFEC4600B52DE90050EE
:100D60002DE9FF1F4FF000032DE90C0001A9FFF74B
:100D70001BFCDDF840E012B0704700BFEC4600B548
:100D80002DE900502DE9FF1F4FF000032DE90C0065
:100D900001A9FFF72BFCDDF840E012B0704700BF5F
:100DA000EC4600B52DE900502DE9FF1F4FF0000380
:100DB0002DE90C0001ABFFF7EDFBDDF840E012B0D0
:100DC000704700BFEC4600B52DE900502DE9FF1F2C
:100DD0004FF000032DE90C0001AAFFF765FCDDF8D8
:100DE00040E012B0704700BF027A1AB9437A43B9A3
:100DF000B02070470368013A02721A020260180EAE
:100E000070474268013B10B4437213680321141DFC
:100E100001721A02446002605DF8044B180E7047BC
:100E200000B585B003AA0023009219460C22FFF7F3
:100E3000EDFB039805B05DF804FB00BFF0E700BFD1
:100E40002DE9F043064685B00F464FF000083846BE
:100E5000FFF7CAFFB028044623D0050627D4002395
:100E60000DF10C09194685000D22CDF80090304691
:100E7000FFF7CCFBEDB2039BCDF80090600605F1C7
:100E800004054CBF5D1BED18002319460D223046AA
:100E90000395FFF7E1FB3846FFF7A6FFB0280446AD
:100EA000DBD1B8F1000F00F0958000201CE000F0CD
:100EB000F003802B5DD0902B19D0A02B2CD0B02B21
:100EC0003FD0C02B6CD000F0F803D02B0BD100F03A
:100ED0000702013242F40022052301213046FFF7C8
:100EE00089FD0028B3D0092005B0BDE8F08300F0EB
:100EF0000D030D2BF7D003AD002300F00F021946B0
:100F000000953046FFF782FB0023009519460D221D
:100F10003046FFF7A1FB9AE7C24302F007034FF404
:100F20007F621A41010702F47F624FF0000348BF5D
:100F300042F4804219463046FFF75CFD0028D2D1CA
:100F400085E7B12857D0B22868D0B32800F0958043
:100F500000F0FC03B42BC6D000F0070201320123DD
:100F600042F4002219463046FFF744FD0028BAD16A
:100F70006DE73846FFF738FF24020443B4F5004F0D
:100F8000B1D024010023A2B219463046FFF732FD4A
:100F90000028A8D114F4004F18BF4FF0010856E7FD
:100FA000C6287DD0C72800F0868000F0F803C02B4B
:100FB00000F09480C82800F09F80C92893D138465B
:100FC000FFF712FF020300F00F0002F4702201305D
:100FD000024381E703AC43460E224146009430466B
:100FE000FFF714FB0094304643460F224146FFF7BB
:100FF00033FB404678E73846FFF7F6FE00283FF41B
:1010000072AF10F0F0037FF46EAF0246194630461F
:10101000FFF7F0FC00287FF466AF18E700230DF11E
:101020000C090D221946CDF800903046FFF7EEFA74
:101030003846FFF7D9FE02064FF002040CD5039B99
:1010400000F07F00A040034438460393FFF7CCFE36
:10105000030604F10704F2D4039BCDF8009000F0DE
:101060007F02A24003F501740023144419460D22A7
:1010700030460394FFF7F0FAE9E63846FFF7B4FE8E
:10108000010300F00F0001F47021421C01230A4308
:1010900030461946FFF7AEFC00287FF424AFD6E6B1
:1010A0003846FFF7A1FE010300F00F0001F47021A4
:1010B000421C0323EBE73846FFF796FE00283FF477
:1010C00012AF10F0F0037FF40EAF02460421304659
:1010D000FFF790FC00287FF406AFB8E600F00F029F
:1010E0000132032342F4202219463046FFF782FCE6
:1010F00000287FF4F8AEAAE63846FFF775FE00F048
:10110000F00200F00F031032013343EA0232E3E64B
:1011100010B5C36C84B05A6803208DF80C00DC79DC
:101120008DF80D4012020833084601A9019202937E
:10113000FFF786FE04B010BD08B5FFF77FFE806C98
:1011400008BD00BF08B5FFF779FEC06CC37900EB9E
:101150008300083008BD00BF08B503F073FB00BF73
:1011600008B5FFF7F9FF00BF38B50E4A0E4B1278ED
:101170001B6805464FF47A70B0FBF2F0B3FBF0F059
:1011800000F0C4F908B90F2D01D9012038BD04467B
:10119000024629464FF0FF3000F082F9034B20460B
:1011A0001D6038BD00000020080000200400002061
:1011B000074A08B5136843F010031360032000F0DA
:1011C0005DF90020FFF7D0FF01F0C6FF002008BD49
:1011D00000200240034A044B11681B780B44136043
:1011E000704700BFC000002000000020014B1868BD
:1011F000704700BFC000002000287CD090F820304D
:1012000070B50446002B73D02268136823F00203E4
:101210001360FFF7EBFF054604E0FFF7E7FF401B15
:101220000A285CD823685A689107F6D41A6842F0F5
:1012300001021A60FFF7DAFF054604E0FFF7D6FF68
:10124000401B0A284BD823685A68D207F6D5227E5D
:10125000012A1A680CBF42F0800222F080021A6054
:10126000627E012A1A680CBF42F0400222F040025E
:101270001A60A27E012A1A680CBF42F0200222F0F6
:1012800020021A60E27E012A1A680CBF22F01002C6
:1012900042F010021A60227F012A1A680CBF42F045
:1012A000080222F008021A60627F012A1A680CBF45
:1012B00042F0040222F004021A60A268E66825697E
:1012C0006069616832432A43024301390A430125B8
:1012D0000021DA610846616284F8205070BD636ABB
:1012E000052243F400336362012084F8202070BD9E
:1012F00001F0B4FD88E70120704700BF90F820306E
:10130000013B012B05D9436A43F48023436201204A
:10131000704703684869D3F8002242F001022DE9C2
:10132000F041CE69C3F80022012500F01F02D3F876
:101330001C4205FA02F2D5432C40C3F81C42B6B356
:10134000012E15D1D3F80C620F68B1F804C0B1F8C2
:101350000CE003EBC00442EA06008E68C3F80C02FE
:101360004CEA07474EEA0646C4F84072C4F84462A5
:101370008869A0BBD3F804022840C3F804020869B6
:10138000A8BBD3F814022840C3F81402096A012943
:1013900004D1D3F81C120A43C3F81C22D3F800224C
:1013A00022F00102C3F800220020BDE8F081D3F84A
:1013B0000C72CE68B1F804E00C8803EBC00805EAB3
:1013C00007008F68C3F80C0288694EEA064644EAB3
:1013D0000744C8F84062C8F844420028CAD0D3F88D
:1013E00004021043C3F8040208690028C9D0D3F8E6
:1013F00014021043C3F81402C8E700BF38B590F8D0
:101400002030012B05D0436A43F4002343620120BE
:1014100038BD0268022380F82030136823F00103EE
:1014200013600446FFF7E2FE054604E0FFF7DEFE28
:10143000401B0A2807D823685B6813F00103F5D125
:101440006362184638BD636A052243F40033636261
:10145000012084F8202038BD90F82030013B012B7A
:1014600005D9436A43F48023436201207047026830
:101470005369194351610020704700BF074AD36880
:101480004FF6FF010B40000243F0BF6300F4E06041
:1014900043F400330343D360704700BF00ED00E026
:1014A000184B70B4DC68C4F30224C4F10706042EA0
:1014B00004F1040328BF0426062B17D9033C012599
:1014C000A540013D2A400123B340013B1940A14002
:1014D000002841EA02010CDB00F1604000F56140A8
:1014E0000901C9B280F8001370BC7047002214468D
:1014F000E9E7054B00F00F0009010344C9B2197672
:1015000070BC704700ED00E0FCEC00E00138B0F189
:10151000807F0ED2084B10B4084C5860F02084F83D
:1015200023000022072110469A6019605DF8044BE1
:1015300070470120704700BF10E000E000ED00E0C0
:101540008C460968002900F0D9802DE9F04FDFF8BA
:10155000C0E183B000254FF0010879E04FEA45096A
:101560000323D0F800B003FA09F3DB4304F00306C9
:101570000BEA030B06FA09F60AF1FF3A46EA0B06F4
:10158000BAF1010F066040F29880C668DCF80820C6
:10159000334002FA09F21A43E300C26054D5584BB3
:1015A000574A9B6943F001039361936925F0030651
:1015B00006F1804603F0010306F58036019305F03D
:1015C0000303019AB2689B004FF00F0909FA03F96F
:1015D000B0F1904F22EA090A00F08680494A904211
:1015E00000F08480484A904200F08380474A90424D
:1015F0000BBF4FF00309052209FA03F302FA03F3C4
:1016000043EA0A03B360DEF80030FA43E60354BF4E
:1016100013403B43CEF80030DEF80430A60354BF3D
:1016200013403B43CEF80430DEF80830E60254BFE6
:1016300013403B43CEF80830DEF80C30A40254BF10
:1016400013403B43CEF80C30013531FA05F348D056
:1016500008FA05F212EA0107F6D0DCF8044024F09B
:10166000100ABAF1020F7FF479AF4FEAD50900EB07
:10167000890905F00703D9F820609B004FF00F0A95
:101680000AFA03FB26EA0B0ADCF8106006FA03F3F9
:1016900043EA0A03C9F820304FEA45090323D0F88A
:1016A00000A003FA09F3DB4304F0030603EA0A0A85
:1016B00006FA09F646EA0A060660866806EA030A9A
:1016C000DCF80C6006FA09F646EA0A068660D0F8ED
:1016D00004A0C4F300162AEA0202AE401643466094
:1016E00053E703B0BDE8F08F002389E708FA03F35E
:1016F00086E74FF0020909FA03F381E7704700BF5C
:10170000001002400004004800080048000C004897
:10171000000401400AB9816270478161704700BFCF
:10172000002800F0CB822DE9F0430368D90783B08D
:10173000044643D5B7494A6802F00C02042A00F077
:10174000B0814A6802F00C02082A00F0A6816368A2
:10175000B3F5803F00F01882002B00F06181B3F5F3
:10176000A02F00F09E82AB4B1A6822F480321A60E0
:101770001A6822F480221A60A64DA268EB6A23F050
:101780000F031343EB62FFF731FD4FF400380746B8
:10179000012605E0FFF72AFDC01B642800F27981CD
:1017A00098FAA8F32A6898FAA8F3B3FA83F303F037
:1017B0001F0306FA03F31342ECD023689F0742D5B8
:1017C000944A516811F00C0F00F0C980516801F083
:1017D0000C01082900F0BF802269002A00F0AE81C8
:1017E000012292FAA2F3B3FA83F303F1845303F5CF
:1017F00084139B0016461A60FFF7F8FC4FF00208AE
:101800000746844D05E0FFF7F1FCC01B022800F2FB
:10181000408198FAA8F32A6898FAA8F3B3FA83F3F8
:1018200003F01F0306FA03F31342ECD02968F822F1
:1018300092FAA2F26369B2FA82F221F0F8019340BF
:101840000B432B6023681D0721D458074DD5714BDE
:10185000DA69D10040F1C1804FF000086E4D2B686D
:10186000DA0540F10681E368012B00F09381002B3B
:1018700000F02E81052B674B1A6A00F0B58122F02B
:1018800001021A621A6A22F004021A6287E1A2694E
:10189000002A7BD0012292FAA2F1604B5D4EB1FA90
:1018A00081F10B449B0015461A60FFF79FFC4FF037
:1018B0000208074605E0FFF799FCC01B022800F26A
:1018C000E88098FAA8F398FAA8F398FAA8F3726A4D
:1018D00098FAA8F3B3FA83F303F01F0305FA03F3AE
:1018E0001342E8D023685807B1D4E3697BB3494D6C
:1018F0006A6802F00C02082A44D0022B4FF0807371
:1019000000F07A8193FAA3F3B3FA83F303F18453DB
:1019100003F584139B0000221A60FFF767FC4FF069
:1019200000740746012605E0FFF760FCC01B022893
:1019300000F2AF8094FAA4F32A6894FAA4F3B3FAFD
:1019400083F303F01F0306FA03F31342ECD10020E4
:1019500003B0BDE8F0835268D6033FF53DAF0222E5
:1019600092FAA2F12B49086892FAA2F2B2FA82F234
:1019700002F01F02012101FA02F2024239D022696B
:101980008A4236D0012003B0BDE8F083012595FAE4
:10199000A5F1224B1F4EB1FA81F10B449B004FF091
:1019A00002081A60FFF722FC074604E0FFF71EFC5E
:1019B000C01B02286DD898FAA8F398FAA8F398FAF1
:1019C000A8F3726A98FAA8F3B3FA83F303F01F033B
:1019D00005FA03F31342E9D184E7DA6942F0805251
:1019E000DA61DB6903F080530193019B4FF001083A
:1019F00034E7084DF821286891FAA1F16269B1FA3B
:101A000081F120F0F8008A4002432A601D077FF52B
:101A10001CAF3CE700100240007000402081901095
:101A2000A74D2B6823F480332B602B6823F480238D
:101A30002B60EB6AA26823F00F031343EB62FFF7FE
:101A4000D5FB4FF400380746012604E0FFF7CEFB34
:101A5000C01B64281DD898FAA8F32A6898FAA8F33E
:101A6000B3FA83F303F01F0306FA03F31342EDD135
:101A7000A3E62B6843F480732B60FFF7B7FB0646A1
:101A80002B68DB053FF5EFAEFFF7B0FB801B64284A
:101A9000F6D9032003B0BDE8F0834A68D2037FF58E
:101AA00056AE4FF4003292FAA2F18549086892FAD4
:101AB000A2F2B2FA82F202F01F02012101FA02F24E
:101AC00002423FF47BAE6268002A7FF477AE59E7AA
:101AD0007B4D2B6A23F001032B622B6A23F0040356
:101AE0002B62FFF783FB4FF002090746012613E044
:101AF00099FAA9F36A6A99FAA9F3B3FA83F303F09E
:101B00001F0306FA03F313420ED0FFF76FFB41F2F7
:101B10008833C01B9842BCD899FAA9F399FAA9F363
:101B2000002BE5D02A6AE6E7B8F1000F3FF4DDAEFE
:101B3000634AD36923F08053D361D6E6012595FA31
:101B4000A5F3B3FA83F303F1845303F584139B00E5
:101B50004FF002081A60FFF749FB594E074604E0B0
:101B6000FFF744FBC01B022893D898FAA8F3326809
:101B700098FAA8F3B3FA83F303F01F0305FA03F30B
:101B80001342EDD123685EE64D4A136843F4803377
:101B90001360F1E54A4A136A43F001031362FFF749
:101BA00025FB4FF002090746454E012514E099FA3E
:101BB000A9F3726A99FAA9F3B3FA83F303F01F0346
:101BC00005FA03F31342AFD1FFF710FB41F288335C
:101BD000C01B98423FF65DAF99FAA9F399FAA9F3B1
:101BE000002BE4D0326AE5E742F004021A621A6A76
:101BF00042F001021A62D2E793FAA3F3B3FA83F335
:101C000003F1845303F584139B0000221A60FFF74D
:101C1000EDFA4FF000780746012605E0FFF7E6FAF7
:101C2000C01B02283FF635AF98FAA8F32A6898FA45
:101C3000A8F3B3FA83F303F01F0306FA03F3134286
:101C4000ECD16A68636A216A22F474120B4313436D
:101C50006B604FF0807393FAA3F3B3FA83F303F14D
:101C6000845303F584139B004FF000741E60FFF74C
:101C7000BDFA134E0746012505E0FFF7B7FAC01B72
:101C800002283FF606AF94FAA4F3326894FAA4F35C
:101C9000B3FA83F303F01F0305FA03F31342ECD006
:101CA00055E603F18043A3F53C331A6842F48022E1
:101CB0001A601A6842F480321A605DE501207047AC
:101CC0000010024078B1654A136803F007038B42A5
:101CD0000BD2136823F007030B431360136803F060
:101CE0000703994201D00120704703682DE9F041B4
:101CF0009F0706D55A4C8568626822F0F0022A4395
:101D00006260DE0704460D4630D54268012A00F0C5
:101D10009380022A0CBF4FF00073022393FAA3F1C1
:101D20004F49086893FAA3F3B3FA83F303F01F0350
:101D3000012101FA03F3034228D0494E736823F0CE
:101D4000030313437360FFF751FA41F2883780466B
:101D500005E0FFF74BFAA0EB0800B84269D87368BA
:101D6000626803F00C03B3EB820FF2D13B4A1368B5
:101D700003F007039D420CD2136823F007032B43A3
:101D80001360136803F007039D4202D00120BDE8F1
:101D9000F0812368580706D53149E0684A6822F483
:101DA000E06202434A60190707D52D4A216953684A
:101DB00023F4605343EAC1035360294B5A6802F08D
:101DC0000C01082916D02749254BF0225B6892FAAE
:101DD000A2F2B2FA82F203F0F003D3402248234A7F
:101DE000C35C002021FA03F31360FFF7BDF9002064
:101DF000BDE8F0814FF4701191FAA1F1B1FA81F1CF
:101E000002F47010C8401A4CD96A235C0F2090FA73
:101E1000A0F0B0FA80F001F00F01C1401548D203E4
:101E2000405C4ABF0F491449B1FBF0F101FB03F1DB
:101E3000CAE70320BDE8F0814FF4003393FAA3F121
:101E40000749096893FAA3F3B3FA83F303F01F0376
:101E500002FA03F30B427FF470AF97E700200240D1
:101E60000010024000127A00984900080800002083
:101E7000F44800080449000800093D00144A53686A
:101E800003F00C01082921D14FF4701191FAA1F14E
:101E900003F47010B1FA81F120FA01F10D48D26A11
:101EA000405C0F2191FAA1F1DB03B1FA81F102F05C
:101EB0000F024CBF084B094B22FA01F208498A5C19
:101EC00048BFB3FBF2F303FB00F0704702487047D2
:101ED00000100240F448000800127A0000093D009A
:101EE00004490008084B4FF4E0625B6892FAA2F2E2
:101EF000B2FA82F203F4E063D3400449044ACB5CB3
:101F00001068D840704700BF00100240A849000880
:101F100008000020084B4FF460525B6892FAA2F26E
:101F2000B2FA82F203F46053D3400449044ACB5C12
:101F30001068D840704700BF00100240A849000850
:101F4000080000202DE9F04304460068C50383B073
:101F500038D5564BDA69D1005ED5554D2B68DA0578
:101F60004FF0000667D5514D2B6A13F440731FD014
:101F7000616801F4407293421BD0296A4FF48033A8
:101F800021F4407093FAA3F24A4FB2FA82F23A4433
:101F900092004FF0010EC2F800E093FAA3F3B3FAF7
:101FA00083F33B449B0000221A602862C80758D480
:101FB00061683E4A136A23F440730B431362002E98
:101FC0004AD12068C10706D5384AA168136B23F0AF
:101FD00003030B431363820606D5344AE168136B8F
:101FE00023F010030B43136303060DD410F4805049
:101FF00007D02E4A6169136B23F480730B4313637C
:10200000002003B0BDE8F083284A2169D36A23F495
:10201000F8730B43D362E9E7DA69254D42F0805249
:10202000DA61DB6903F080530193019B2B68DA05C9
:102030004FF0010697D42B6843F480732B60FFF7B1
:10204000D5F807462B68DB058DD4FFF7CFF8C01B0A
:102050006428F7D90320D4E7D36923F08053D361F0
:10206000AFE77746FFF7C2F84FF00209804614E069
:1020700099FAA9F36A6A99FAA9F3B3FA83F303F018
:102080001F0307FA03F3134292D1FFF7AFF841F2AF
:102090008833A0EB08009842DCD899FAA9F399FAA2
:1020A000A9F3002BE4D02A6AE5E700BF0010024044
:1020B0000070004000819010002866D0F8B590F8BC
:1020C0003D30044603F0FF02002B39D0236830492D
:1020D000022284F83D208B421A684FD0B3F1804F22
:1020E00033D0A1F594318B422FD001F59E318B4234
:1020F00016D001F580618B4212D001F580618B42D0
:102100000ED0A569E068616822F080022A431A6057
:10211000D862996201225A61002084F83D20F8BDFE
:102120002069A16922F44072024322F080020A432E
:102130001A60E268DA6262689A6262691A63E9E7C1
:1021400080F83C2001F0D4FAC0E7A6682069A169B4
:10215000E768656822F07002324322F4407202435D
:1021600022F080020A431A600A4ADF6293429D62AB
:10217000E3D002F580629342CCD1DEE7A568206906
:10218000A16922F070022A43CCE70120704700BF0A
:10219000002C01400044014003680122186A02FA41
:1021A00001F120EA010010B418621A6A0E4C1143C2
:1021B000A342196212D00D4A93420FD002F58062F9
:1021C00093420BD002F58062934207D01A685DF803
:1021D000044B42F0010200201A6070475A6C42F42E
:1021E00000425A64F2E700BF002C01400040014069
:1021F000F0B4046A8F680E68194D24F0010404627B
:10220000036A4468826922F4803223F0020322F0D8
:102210007302A84243EA070342EA060212D005F518
:10222000A055A8420ED005F58065A8420AD005F554
:102230008065A84206D0496844608261F0BC416371
:1022400003627047CD688E6923F008032B434D6904
:1022500024F44074354323F004032C43EBE700BF20
:10226000002C0140F0B4046A8F680E68194D24F008
:1022700010040462026A4468836923F0807322F0C8
:10228000200223F4E643A84242EA071243EA062367
:1022900010D0114DA84214D0104DA84211D005F510
:1022A0008065A8420DD0496844608361F0BC8163B9
:1022B00002627047CD6822F0800242EA051222F0E5
:1022C00040024D698E6924F44064354344EA850434
:1022D000E9E700BF002C01400040014000440140FC
:1022E000F0B4046A8F680E68194D24F48074046297
:1022F000026A4468C36923F4803322F4007223F035
:102300007303A84242EA072243EA060310D0114DA4
:10231000A84214D0104DA84211D005F58065A842FE
:102320000DD049684460C361F0BCC163026270476C
:10233000CD6822F4006242EA052222F480624D69EF
:102340008E6924F44054354344EA0514E9E700BF9C
:10235000002C01400040014000440140F0B4046AF8
:102360008F680E68154D24F480540462026A446834
:10237000C36923F0807322F4005223F4E643A84299
:1023800042EA073243EA062312D005F5A055A842D7
:102390000ED005F58065A8420AD005F58065A842F3
:1023A00006D049684460C361F0BC016402627047B2
:1023B0004D6924F4804444EA8514F2E7002C01407E
:1023C000F8B590F83C30012B57D00D46022301217F
:1023D000044680F83C1080F83D30142A46D8DFE8E7
:1023E00002F04E45454560454545734545458545A3
:1023F0004545984545450B000368D5F808E0186A3F
:102400002F68654E20F480101862196A58685A6D5A
:1024100022F0807221F4001122F4E042B34241EA3A
:102420000E5142EA072200F0B08006F5A056B342F2
:1024300000F0AB8006F58066B34200F0A68006F59A
:102440008066B34200F0A1806E6858605A65DE6510
:102450001962596D286941F400615965596D21F47B
:10246000806159655A6D42EA00225A6501230020B5
:1024700084F83D3084F83C00F8BD0220F8BD2946C0
:102480000068FFF7B5FE23682869996941F00801E3
:102490009961996921F0040199619A6902439A61ED
:1024A000E4E729460068FFF7DDFE2368286999699B
:1024B00041F400619961996921F4806199619A6997
:1024C00042EA00229A61D1E729460068FFF708FF37
:1024D00023682869D96941F00801D961D96921F0D7
:1024E0000401D961DA690243DA61BFE7294600686D
:1024F000FFF734FF23682869D96941F40061D96185
:10250000D96921F48061D961DA6942EA0022DA618D
:10251000ACE70368D5F808E0186A2F681E4E20F46F
:1025200080301862196A58685A6D22F4803221F49A
:10253000003122F07002B34241EA0E4142EA070242
:102540001DD006F5A056B34219D006F58066B342F9
:1025500015D006F58066B34211D06E6858605A6592
:102560009E651962596D286941F008015965596DD8
:1025700021F0040159655A6D02435A6576E76E6988
:1025800020F4803040EA0620E7E76E6920F48020DE
:1025900040EA862058E700BF002C014090F83C300C
:1025A000012B16D0026870B40E4D53689468AA428D
:1025B00012D00E688D6823F0700324F0800133433D
:1025C000002429435360916080F83C40204670BC51
:1025D00070470223184670474D6823F470032B435D
:1025E000E7E700BF002C014090F83C30012B29D0D8
:1025F000F0B491E8E000CB680C6923F440733B43EE
:1026000023F48063334323F400632B4323F4805388
:102610000246234348698E6A124D8C6923F40053A5
:10262000034323F440431068334323F47023A84248
:1026300043EA044308D000214364F0BC084682F812
:102640003C107047022070474D6ACC69096A23F438
:10265000700343EA055323F08073234323F0007390
:102660000B43E8E7002C0140F0B50E4690F86910E6
:10267000202983B002D0022003B0F0BD7EB372B334
:102680001D4690F86830012B0446F4D0002001214B
:102690002123E06684F8681084F869300192FEF71F
:1026A000A5FD019AA4F8502007462068A4F85220FE
:1026B000B4F852309BB2F3B1B4F85230013B9BB244
:1026C000A4F85230691C22D1C2691206FCD5A36855
:1026D000B3F5805F37D0337803850136E8E7012012
:1026E000CAE7C3695B060BD4DDB1FEF77FFDC01BF3
:1026F0008542206815D3691CF3D1C3695A06FCD5FD
:102700002023002084F8693084F86800B4E7C369A6
:102710001B06DCD42DB1FEF769FDC01B8542206885
:10272000D0D2036823F4D07303608368202223F09F
:1027300001030021836084F86920032084F8681075
:1027400084F86A2098E72369002BC4D136F8023B4D
:10275000C3F308030385ABE72DE9F041884690F801
:102760006A10202982B003D0022002B0BDE8F081B7
:10277000B8F1000F40D0002A3ED01D4690F86830D6
:10278000012B0446F0D0222300200121E06684F8CA
:10279000681084F86A300192FEF728FDA368019A58
:1027A000A4F85820B3F5805F0746A4F85A2059D002
:1027B000002B4DD12369002B50D07F26A4F85C60FC
:1027C000B4F85A0080B200283CD0B4F85A30013B2B
:1027D0009BB2A4F85A30691C20680FD1C2699206D6
:1027E000FCD5A368B3F5805F24D0838C334088F890
:1027F000003008F10108E3E70120B6E7C3699B0652
:10280000EFD42DB1FEF7F2FCC01B8542E3D2206865
:10281000036823F4D07303608368202223F001034C
:102820000021836084F86920032084F8681084F80C
:102830006A209AE72369002BD7D1838C334028F88C
:10284000023BBDE7202384F8680084F86A308CE7F7
:10285000B3F1805F0ED0B4F85C60B1E7FF26A4F856
:102860005C60ADE72369002BF8D140F2FF16A4F8B5
:102870005C60A5E72369002B9FD03F26A4F85C602D
:102880009EE700BF436ADA0710B406D50168846A80
:102890004A6822F4003222434A609C0706D5016848
:1028A000C46A4A6822F4803222434A60590706D536
:1028B0000168046B4A6822F4802222434A601A07A6
:1028C00006D50168446B4A6822F4004222434A60FC
:1028D000DC0606D50168846B8A6822F480522243A4
:1028E0008A60990606D50168C46B8A6822F4005292
:1028F00022438A605A0609D50168046C4A6822F4AA
:1029000080122243B4F5801F4A600BD01B0606D507
:102910000268816C536823F400230B4353605DF815
:10292000044B70474A68446C22F4C00222434A6058
:10293000ECE700BF002800F0AF80F8B590F86930F0
:10294000044603F0FF02002B31D025682769666931
:10295000E169894A242384F869302868A36820F053
:102960000100286028683B43334302400B43134374
:102970002B606A68E668A369276A804822F440529F
:1029800032436A60AA683B4322F4306213438542B3
:10299000AB606FD07A4B9D420ED003F580639D42B1
:1029A0000AD0B1F5004F00F0A2800120F8BD80F8F8
:1029B000682000F0F3FEC8E7B1F5004F00F0948006
:1029C000FFF790FA626800EB5203B3FBF2F39BB29D
:1029D000EB60636A002B49D123685A6822F4904265
:1029E0005A609A6822F02A029A601A68002142F01E
:1029F00001021A60E166FEF7F9FB23681A68110705
:102A000006460BD41A68520724D42023002084F8E9
:102A1000693084F8680084F86A30F8BDDD6915F41F
:102A20000015EFD1FEF7E2FB801BB0F1007F2368B9
:102A3000F4D31A6822F4D0721A609A68202122F026
:102A400001029A60032084F8691084F8685084F8C1
:102A50006A10F8BDDD6915F48005D6D1FEF7C6FB16
:102A6000801BB0F1007F2368F4D3E2E72046FFF734
:102A700009FFB1E7434B444A1B6B03F00303B1F575
:102A8000004FD35C3BD1082B34D8DFE803F02D2A6C
:102A90002033153333330700012070476268530831
:102AA00003F58033B3FBF2F39BB223F00F02C3F3C1
:102AB00042031343EB608CE7FFF7E0F96268256897
:102AC000530803EB4003B3FBF2F39BB2EDE76268FC
:102AD000530803F5740303F51053B3FBF2F39BB2F1
:102AE000E3E7FFF717FAE9E7FFF7FCF9E6E700236A
:102AF000EB605AE7214B0022DA600120F8BD082B79
:102B00003FF653AF01A252F823F000BFC1290008DD
:102B1000312B0008612B0008AB2900085B2B000853
:102B2000AB290008AB290008AB290008472B000897
:102B3000FFF7F0F96268114900EB5203B3FBF2F3BF
:102B40009BB2CB6045E762680C49530803F500432C
:102B5000B3FBF2F39BB2CB603BE7FFF78FF9E9E7FA
:102B600062680649530803F5F40303F59053B3FB79
:102B7000F2F39BB2CB602CE7F369FFEF0038014022
:102B800000440040001002401449000870B5274C72
:102B9000237882B033B1264B1B681A09422A03D02E
:102BA0000023237002B070BD224A03F00F0383801C
:102BB00015785178927800260196013B8DF80450E3
:102BC0008DF805108DF806209DED010A072BE7D83A
:102BD000DFE803F027221D18130E09040068703087
:102BE00000F04EF8DCE70068603000F049F8D7E705
:102BF0000068503000F044F8D2E70068403000F040
:102C00003FF8CDE70068303000F03AF8C8E70068D8
:102C1000203000F035F8C3E70068103000F030F8DD
:102C2000BEE7006800F02CF8BAE700BFB000002053
:102C3000940000208C00002010B58AB000230424EA
:102C4000012269460C48009302930493059306936E
:102C50000194039407920892FEF750FB10B10748C5
:102C600000F03AFE0448FEF7C9FB02210248FEF7D5
:102C7000F3FB0AB010BD00BFC400002018490008D3
:102C8000C368D3B1042B29D0082B38D00C2B47D0E4
:102C9000102B03689FED2B7A1B68D3ED0B7A20EE87
:102CA000070AF8EEE77A27EE800ABDEEC00A0CBFED
:102CB00083ED160A83ED170A704703689FED217AAA
:102CC0001B68D3ED0B7A20EE070AF8EEE77A27EEC1
:102CD000800ABDEEC00A83ED0D0A704703689FEDC0
:102CE000197A1B68D3ED0B7A20EE070AF8EEE77A23
:102CF00027EE800ABDEEC00A83ED0E0A7047036816
:102D00009FED107A1B68D3ED0B7A20EE070AF8EEE0
:102D1000E77A27EE800ABDEEC00A83ED0F0A7047FE
:102D200003689FED087A1B68D3ED0B7A20EE070A43
:102D3000F8EEE77A27EE800ABDEEC00A83ED100AAE
:102D4000704700BF0AD7233C10B50446C16800682D
:102D5000FFF722FA218960680022BDE81040FEF7E3
:102D6000D9BC00BF10B52A4B02682DED028B07EECF
:102D7000901A9A4282B00446B8EEE78A3CD0FFF738
:102D8000B1F8B5EE408AF1EE10FA01903CD0DDEDDD
:102D9000017AB8EEE76A0020F7EE005A4FF6FF71AD
:102DA000013080B207EE900AF8EE676AC6EE267A26
:102DB000B4EE678AF1EE10FA1CD0012302E093B260
:102DC0008B42EDD007EE903AF8EE677A5A1C77EE18
:102DD000A57A67EEA67A86EE277AB4EE478AF1EEF8
:102DE00010FAECD1013822685060D36002B0BDEC1B
:102DF000028B10BD0023F5E7FFF78CF8B5EE408A93
:102E0000F1EE10FA0190C2D100234FF0FF30EAE753
:102E10002C0100200F4B104A70B501211A600426C6
:102E200000224FF080754FF4C02418465E60DD60CC
:102E30001C619A605A611A769A76DA761A77597610
:102E40005977FEF7D9F900B970BDBDE8704000F0C0
:102E500061B900BFC40000200064004070B5016883
:102E6000184A88B000239142049303930593069374
:102E7000079301D008B070BD03F1804303F504331C
:102E800003A9DA6942F00072DA61DA6902F00072CD
:102E90000192019A5A6942F400325A615B6903F463
:102EA00000330293032209234FF4C05502244FF04C
:102EB0009040029E0395049406920793FEF740FB10
:102EC00008B070BD0064004030B589B00024194BD3
:102ED000049403940594069407945A69164D42F499
:102EE00080025A615A6902F480020092009A5A697B
:102EF00042F400325A615A6902F400320192019A96
:102F00005A6942F480225A615B6903F48023029378
:102F100022462846C021029BFEF7FCFBC02201236B
:102F200003A928460594069403920493FEF708FB30
:102F300009B030BD001002400004004830B597B021
:102F40000CA82822002100F0BEFC01230024022549
:102F50004FF4A0214FF480320C9310930CA84FF43F
:102F6000E0130D9114921593029401940394049428
:102F7000059406940794089409940A940B94139565
:102F8000FEF7CEFB0F2229464FF4806301A8019281
:102F90000493029503940594FEF794FE4FF4805336
:102FA00006A80B940693FEF7CDFF17B030BD00BF07
:102FB0002DE9F047524B534F1B68AEB00021986883
:102FC00000F0A2FC0124FEF7F3F84FF09046FFF763
:102FD000B5FF02ADFFF778FFFFF71CFF00F072F9B5
:102FE00000F03EFA00F0D2FA00F0BAFBFFF724FE40
:102FF000454B46494648029102224FF0200E4FF4BD
:10300000007C06911A911E91039307930B931B93D7
:103010001F93ADF810E003234FF4807E05920D92CC
:103020001592ADF88020099404221994ADF87040EF
:103030000A900024284632210E97129716970F9671
:10304000139617964FF0100A4FF008094FF4806856
:103050000426002711932193ADF850C0ADF860E02D
:103060001D92ADF820A0ADF83090ADF840802894C6
:103070008DF8A8408DF8A9408DF8AA402B9429948A
:10308000CDE92C67FFF76EFE06A83221FFF76AFE36
:103090000AA83221FFF766FE0EA83221FFF762FE72
:1030A00012A83221FFF75EFE16A83221FFF75AFE62
:1030B0001AA83221FFF756FE32211EA8FFF752FE52
:1030C0002846FFF741FE06A8FFF73EFE0AA8FFF7D5
:1030D0003BFE0EA8FFF738FE12A8FFF735FE16A834
:1030E000FFF732FE1AA8FFF72FFE1EA8FFF72CFEEF
:1030F000ADF8044000956846FFF748FDFBE700BFC8
:103100000C0000202C01002000040048EC000020EE
:103110006C010020704700BF00B583B002A90123F5
:1031200001F8010D1A460348FFF79EFA03B05DF857
:1031300004FB00BFAC01002000B583B00F230122C7
:103140000DF107010348FFF707FB9DF8070003B0E7
:103150005DF804FBAC0100200A4B9A6942F00102C1
:103160009A619A6982B002F001020092009ADA69CB
:1031700042F08052DA61DB6903F080530193019BD6
:1031800002B0704700100240704700BFFEE700BF6A
:10319000FEE700BFFEE700BFFEE700BF704700BFCD
:1031A000704700BF704700BFFEF714B8012070479A
:1031B00008B500F053FB162303604FF0FF3008BD45
:1031C00008B500F04BFB16230360FEE770B5161E32
:1031D00007DD0C468D19FFF7AFFF04F8010BA54280
:1031E000F9D1304670BD00BF70B5161E07DD0C4624
:1031F0008D1914F8010BFFF78FFFAC42F9D130465F
:1032000070BD00BF0A4A08B5136873B11844694617
:10321000884202D81060184608BD00F01FFB0C233E
:1032200003604FF0FF33184608BD024B1360EDE713
:10323000B4000020200200204FF0FF30704700BF94
:103240004FF400534B600020704700BF01207047CF
:10325000002070471749184B184A194810B4D1F884
:10326000884044F47004C1F888401C6844F00104AC
:103270001C605C6822405A601A6822F0847222F452
:1032800080321A601A6822F480221A605A6822F486
:10329000FE025A60DA6A22F00F02DA621A6B002428
:1032A00010404FF0006218639C608A605DF8044B28
:1032B000704700BF00ED00E0001002400CC07FF836
:1032C000CCFC00FF30B500249FB0604D0594214632
:1032D00013A82C22049406940C940D940E940F942D
:1032E00010941194129400F0EEFA594B6C60284639
:1032F000AC60EC602C616C61AC612B60FEF7DCFEB5
:1033000000285BD1002304A9504804930593069339
:10331000FFF744F900284ED1002360241A460CA977
:103320004A480D930E930F931093119312930C949C
:10333000FFF746F800283BD104220CA94348FFF7C9
:103340003FF8002831D10CA908224048FFF738F88F
:1033500040BB00234FF400544FF0007213A93B48C8
:103360001393149315931693179319931A931C930D
:103370001D9318941B92FFF737F908B1FFF7CAFEA7
:103380002A68334900238A420893079309930A93D2
:103390000B932BD0B2F1804F42D02E4B9A4210D0DB
:1033A0001FB030BDFFF7B6FED3E7FFF7B3FECAE7A5
:1033B000FFF7B0FEC0E7FFF7ADFEADE7FFF7AAFEEF
:1033C000A0E703F5033324485A6942F480225A6186
:1033D0005B6903F4802303933322022307A9039C30
:1033E000079208930B93FEF7ABF8D9E703F18043FC
:1033F00003F504334FF4E0645A6942F400325A6131
:103400005B69079403F4003301930222062307A9A2
:103410004FF09040019D08920B93FEF791F8BFE7A3
:103420000E4B0D485A6942F480225A615B6903F4DD
:103430008023029308240222012307A9029D0794F6
:1034400008920B93FEF77CF8AAE700BF2C0100203E
:10345000002C01400004004000040048001002401D
:1034600030B5454C93B000234FF08042204684E8AD
:103470000C0003930B93A360E3602361A3610493A7
:1034800005930C930D930E930F9310931193FEF7E6
:1034900013FE50BB002303A9374803930593FFF79E
:1034A0007DF8F8B9002360250BA9042232480B955A
:1034B0000C930D930F93FEF783FF08B1FFF72AFEDD
:1034C00022682E4900238A420793069308930993A2
:1034D0000A9322D0B2F1804F39D0294B9A4207D0BB
:1034E00013B030BDFFF716FEDCE7FFF713FED1E7A0
:1034F00003F5033323485A6942F480225A615B6919
:1035000003F4802302933322022306A9029C06922D
:1035100007930A93FEF714F8E2E703F1804303F5FB
:1035200004334FF4E0645A6942F400325A615B6933
:10353000069403F4003300930222062306A94FF0F9
:103540009040009D07920A93FDF7FAFFC8E70E4BE3
:103550000C485A6942F480225A615B6903F4802363
:10356000019308240222012306A9019D06940792D3
:103570000A93FDF7E5FFB3E76C010020002C014042
:1035800000040040000400480010024030B5534CD5
:10359000534B236093B000232046636003930B9347
:1035A000A360E3602361A361049305930C930D93DF
:1035B0000E930F9310931193FEF77EFD002846D1D2
:1035C000002303A9454803930593FEF7E7FF00286E
:1035D0003AD1002360251A460BA940480C930D935D
:1035E0000F930B95FEF7ECFE58BB04220BA93B484A
:1035F000FEF7E6FE10BB08220BA93848FEF7E0FEF6
:10360000C8B90BA90C223548FEF7DAFE08B1FFF75E
:1036100081FD2268334900238A4207930693089369
:1036200009930A932BD0B2F1804F42D02C4B9A428F
:1036300010D013B030BDFFF76DFDE2E7FFF76AFD74
:10364000D9E7FFF767FDD0E7FFF764FDC1E7FFF7B4
:1036500061FDB5E703F5033323485A6942F480223C
:103660005A615B6903F4802302933322022306A983
:10367000029C069207930A93FDF762FFD9E703F1D4
:10368000804303F504334FF4E0645A6942F4003296
:103690005A615B69069403F4003300930222062307
:1036A00006A94FF09040009D07920A93FDF748FF4E
:1036B000BFE70E4B0C485A6942F480225A615B699D
:1036C00003F48023019308240222012306A9019D0B
:1036D000069407920A93FDF733FFAAE7EC00002057
:1036E00000040040002C014000040048001002408B
:1036F0000368184A934284B013D0B3F1804F1CD0B2
:10370000154A934201D004B07047144BDA6942F075
:103710000202DA61DB6903F002030393039B04B046
:1037200070470E4B9A6942F400629A619B6903F4F8
:1037300000630193019B04B0704703F50433DA6919
:1037400042F00102DA61DB6903F001030293029B9C
:10375000D9E700BF002C01400004004000100240E7
:103760000C4B0D4A10B50C211A604FF4E1340022C5
:1037700018465C6059619A60DA601A619A61DA6190
:103780001A625A62FFF7D6F800B910BDBDE81040C2
:10379000FFF7C0BCAC0100200044004070B50168D8
:1037A000184A88B00023914204930393059306932B
:1037B000079301D008B070BD03F1804303F50433D3
:1037C00003A9DA6942F40032DA61DA6902F40032FC
:1037D0000192019A5A6942F400325A615B6903F41A
:1037E000003302930322072348F2040502244FF01A
:1037F0009040029E0395049406920793FDF7A0FE65
:1038000008B070BD00440040DFF834D0002103E070
:103810000C4B5B58435004310B480C4B42189A42F6
:10382000F6D30B4A02E0002342F8043B094B9A42CC
:10383000F9D3FFF70FFD00F017F8FFF7B9FBFEE72C
:1038400000300020744B00080000002070000020B1
:103850007000002020020020FEE70000014B1868E5
:10386000704700BF0C00002070B50D4E0D4CA41B1E
:10387000A4100025A54209D10B4E0C4C01F02EF8E6
:10388000A41BA4100025A54205D170BD56F8253013
:1038900098470135EEE756F8253098470135F2E7AD
:1038A0006C4B00086C4B00086C4B0008704B000818
:1038B00010B5431E0A44914200D110BD11F8014BCE
:1038C00003F8014FF7E702440346934200D17047E3
:1038D00003F8011BF9E700000FB40A4B13B51C688D
:1038E00024B1A36913B9204600F0B6F905AB049AD8
:1038F000A1680193204600F07BFB02B0BDE81040B8
:1039000004B070470C00002000294FF480630CBF06
:103910000222002200F000B82DE9F7431D46514B6A
:103920001E6804460F46904626B1B36913B9304667
:1039300000F092F94C4B9C4252D17468B8F1020FDE
:1039400006D0B8F1010F00F28980002DC0F2868008
:103950002146304600F016F9616B41B104F1440391
:10396000994202D0304600F06DFA002363630023D1
:10397000A3616360A3891B0603D52169304600F06B
:1039800061FAA38923F44A6323F00303B8F1020F19
:10399000A3815DD001AB6A462146304600F0E6F9CE
:1039A000A3891843A0812DBB009D284600F042FA50
:1039B000074600284ED1DDF80090A9453CD14FF0D4
:1039C000FF30A38943F00203A3810023A36004F125
:1039D0004703236023610123636103B0BDE8F083E3
:1039E000224B9C4201D1B468A8E7214B9C4208BFFE
:1039F000F468A3E7002FD8D0B36913B9304600F0BC
:103A00002BF9B8F1010F08BFA389276004BF43F069
:103A10000103A381A389276113F0080065611BD00E
:103A200013F0010018BF6D424FF000031DBFA360EB
:103A3000A5611846A560D0E7484600F0FBF90746A7
:103A40000028BCD0A38943F08003A3814D46D3E76F
:103A50000020B6E7A946F5E7A060BEE74FF0FF30CB
:103A6000BBE700BF0C000020D4490008F44900085F
:103A7000B44900088A892DE9F041054610070C4633
:103A80005AD44B68002B05DC0B6C002B02DC0020A9
:103A9000BDE8F081E66A002EF9D0002312F48052CE
:103AA0002F682B6033D0606DA3895A0705D56368F2
:103AB000C01A636B0BB1236CC01A00230246E66A7E
:103AC000216A2846B047431CA38906D129681D29CD
:103AD0004BD82B4ACA40D60747D500226260D9048A
:103AE0002269226004D5421C01D12B6803B96065AC
:103AF000616B2F600029CAD004F14403994202D0BF
:103B0000284600F09FF900206063BDE8F081216A3B
:103B100001232846B047411CC6D12B68002BC3D0D7
:103B20001D2B01D0162B01D12F60B0E7A38943F0E4
:103B30004003A381BDE8F0810F69002FA7D0930750
:103B40000E6808BF4B690F6018BF0023A6EB07087B
:103B50008B60B8F1000F9ADD43463A46216AA66AA7
:103B60002846B047002807DCA38943F04003A3811F
:103B70004FF0FF30BDE8F0810744A8EB0008E8E70C
:103B80000100402038B50B6905460C46DBB118B181
:103B900083690BB900F060F80C4B9C4209D16C684A
:103BA000B4F90C307BB121462846BDE83840FFF718
:103BB00061BF074B9C4201D1AC68F1E7054B9C42C9
:103BC00008BFEC68ECE7002038BD00BFD44900080E
:103BD000F4490008B4490008014900F0A9B800BF41
:103BE000853B0008002310B50446036043608360F2
:103BF00081814366C2810361436183611946082262
:103C00005C30FFF760FE054B6362054BA362054B1A
:103C1000E362054B2462236310BD00BF69450008C1
:103C20008B450008C3450008E745000870B54A1EEB
:103C3000682555430E4605F1740100F051F904461C
:103C400040B1002180E842000C30A06005F168021C
:103C5000FFF739FE204670BD836910B5044633BBBB
:103C60008364C3640365124B124A1B6882629842E4
:103C700004BF0123836100F01FF86060204600F05C
:103C80001BF8A060204600F017F80022E060042135
:103C90006068FFF7A7FF01220921A068FFF7A2FFD4
:103CA00002221221E068FFF79DFF0123A36110BDEE
:103CB000B0490008D93B0008F8B51C4B1E68B36931
:103CC000074613B93046FFF7C7FF4836B468736834
:103CD000013B03D5336833B13668F7E7B4F90C50CC
:103CE0006DB16834F4E704213846FFF79FFF306078
:103CF0000028F1D10C233B6004462046F8BD4FF666
:103D0000FF73E3810123A38165662560A56065607B
:103D100025616561A5610822294604F15C00FFF771
:103D2000D2FD6563A563A564E564E6E7B0490008D4
:103D30002DE9F8438046894600F14804002614B96D
:103D40003046BDE8F883A5686768013F01D524685F
:103D5000F5E7AB89012B07D9B5F90E30013303D054
:103D600029464046C84706436835EEE770B50E461B
:103D7000B1F90E10002990B014461D4607DA002351
:103D80002B60B3891A0610D44FF480630EE001AAA9
:103D900000F010FD0028F2DB029A02F47042A2F556
:103DA00000535A425A412A60EEE740230020236024
:103DB00010B070BD8B8973B59D0706460C4607D5BC
:103DC00004F14703236023610123636102B070BDE6
:103DD00001AB6A46FFF7CAFF00990546304600F07E
:103DE0007FF848B9B4F90C309A05EFD423F00303F7
:103DF00043F00203A381E3E70D4BB362A389206084
:103E000043F08003A381009B6361019B20615BB150
:103E1000B4F90E10304600F0DFFC28B1A38923F07E
:103E2000030343F00103A381A3891D43A581CDE7CB
:103E3000D93B0008024B0146186800F051B800BF9A
:103E40000C00002038B50546002945D051F8043C47
:103E50000C1F002BB8BFE41800F0E0FC1F4A1368E9
:103E6000104633B9636014602846BDE8384000F05E
:103E7000D6BCA3420CD921686218934204BF1A68C9
:103E80005B68636004BF521822600460ECE713466D
:103E90005A680AB1A242FAD919685818A0420BD13F
:103EA00020680144581882421960DDD110685268B8
:103EB0005A6001441960D7E702D90C232B60D3E77D
:103EC000206821188A4204BF11685268626004BFEA
:103ED000091821605C60C7E738BD00BFB80000204A
:103EE00070B5CD1C25F0030508350C2D38BF0C2509
:103EF000002D064601DBA94203D90C2333600020C4
:103F000070BD00F08BFC234A1468214691B9224C05
:103F100023681BB9304600F017FB20602946304665
:103F200000F012FB431C26D10C233360304600F016
:103F300076FCE4E70B685B1B1AD40B2B0FD90B60E4
:103F4000CD50CC18304600F06AFC04F10B00231D64
:103F500020F00700C31A1BD05A42E25070BD8C42B9
:103F60000DBF63684B686360136018BF0C46E9E7D8
:103F70000C464968CAE7C41C24F00304A04205D0DB
:103F8000211A304600F0E0FA0130CDD02560D9E7A3
:103F900070BD00BFB8000020BC0000209368013B4A
:103FA000002B10B4936009DA9469A34202DBCBB210
:103FB0000A2B03D15DF8044B00F01ABB1368581CA0
:103FC00010601970C8B25DF8044B7047F8B506462A
:103FD0000F461446D518AC4201D1002007E03A46FE
:103FE00014F8011B3046FFF7D9FF431CF3D1F8BD8D
:103FF0002DE9F04F9DB00C4617460393064618B1C5
:1040000083690BB9FFF728FE7C4B9C4257D174683B
:10401000A38918075DD52369002B5AD00023099383
:1040200020238DF8293030238DF82A304FF0010BF2
:10403000B846454615F8013B002B55D1B8EB070AA9
:104040000BD053463A4621463046FFF7BFFF0130BA
:1040500000F0C480099B5344099398F80030002B6A
:1040600000F0BC8000234FF0FF32049307930592C9
:1040700006938DF853301A93052229786048FCF78F
:10408000A7F805F10108049B002831D1D90644BFE7
:1040900020228DF853201A0744BF2B228DF853207D
:1040A0002A782A2A2CD0079A00210A20A84601350E
:1040B00098F80030303B092B6DD971B326E0514B95
:1040C0009C4201D1B468A3E74F4B9C4208BFF468FF
:1040D0009EE72146304600F0EFFA00289ED04FF0D0
:1040E000FF301DB0BDE8F08F252BA7D0A846A0E774
:1040F000434A801A0BFA00F0184304904546BBE788
:10410000039A111D12680391002A01DB079204E053
:10411000524243F002030792049398F800302E2B8A
:1041200010D198F801302A2B08F1010137D1039BF7
:104130001A1D1B680392002BB8BF4FF0FF3308F124
:1041400002080593314D98F8001003222846FCF729
:104150003FF840B14023401B03FA00F0049B0343A7
:10416000049308F1010898F8001029488DF82810E8
:10417000062208F10107FCF72BF8002834D0254B64
:1041800003BB039B073323F0070308330393099B07
:104190004B4409934CE700FB0232012186E70023E0
:1041A000059318460A258846013198F80020303AD0
:1041B000092A03D9002BC5D00590C3E705FB0020D1
:1041C0000123F0E703AB00932246134B04A93046CA
:1041D000AFF30080B0F1FF3F8146D8D1A3895B06E1
:1041E0003FF57DAF09987CE703AB009322460A4B6D
:1041F00004A9304600F088F8ECE700BFD449000875
:10420000144A0008F4490008B44900081A4A000892
:104210001E4A000800000000CD3F00082DE9F047CD
:1042200091461F468A680B69DDF820809342B8BF2B
:104230001346C9F8003091F8432006460C4612B1E7
:104240000133C9F800302368990642BFD9F800301D
:104250000233C9F80030256815F0060507D104F1CE
:10426000190AE368D9F800209B1A9D4229DB94F8CB
:1042700043302268003318BF012392062ED404F184
:10428000430239463046C047013021D02368E568F3
:10429000D9F8002003F00603042B08BFAD1AA36869
:1042A00022690CBF25EAE57500259342C4BF9B1A1D
:1042B000ED184FF000091A344D451BD10020BDE820
:1042C000F0870123524639463046C047013003D1BA
:1042D0004FF0FF30BDE8F0870135C2E7E1185A1C06
:1042E000302081F84300224494F8451082F84310AE
:1042F0000233C4E70123224639463046C047013025
:10430000E6D009F10109D7E72DE9F04317460A7E07
:1043100085B06E2A984606460C460C9B01F1430E6A
:1043200000F0BC801AD8632A2ED00AD8002A00F0E8
:10433000C880582A00F08A8004F1420584F842209F
:104340002AE0642A01D0692AF6D121681A6811F09E
:10435000800F23D0111D1960136827E0732A00F025
:10436000B48008D86F2A2AD0702AE5D10A6842F0B2
:1043700020020A6003E0752A21D0782ADCD1782255
:1043800084F845206E4964E01A6801F14205111D68
:104390001960136884F842300123A3E011F0400F44
:1043A00002F104011960D7D0B2F90030002B03DA12
:1043B0002D225B4284F8432062490A2217E02068DC
:1043C000196810F0800F03D0081D18600B6806E014
:1043D00010F0400F01F104001860F7D00B88594924
:1043E0006F2A14BF0A220822002084F8430065685F
:1043F000A560002DC0F29C80206820F004002060A1
:10440000002B3FD1002D40F095807546082A0BD136
:104410002368DA0708D5236962689A42DEBF302331
:1044200005F8013C05F1FF35AEEB05032361CDF83E
:1044300000803B4603AA21463046FFF7EFFE0130DD
:1044400055D14FF0FF3005B0BDE8F08381F845202D
:104450003C492268186812F0800F00F104051D60C5
:1044600001D0036802E05506FBD50388D00744BF9E
:1044700042F0200222601BB9226822F02002226052
:104480001022B1E77546B3FBF2F002FB1033CB5CB0
:1044900005F8013D03460028F5D1B7E708681A681A
:1044A000496910F0800F04D0101D1860136819605E
:1044B00007E010F0400F02F1040018601368F6D016
:1044C0001980002323617546B1E71A68111D196030
:1044D0001568626800212846FBF77AFE08B1401B88
:1044E000606063682361002384F843309FE7236999
:1044F0002A4639463046C0470130A2D023689B0780
:1045000007D5002504F11909E368039A9B1A9D4217
:1045100005DBE068039B9842B8BF184693E7012388
:104520004A4639463046C04701308AD00135EBE76C
:10453000002BA7D10B7884F8423004F1420565E7DF
:10454000364A0008254A000838B5064C00230546BF
:1045500008462360FEF756FE431C02D1236803B1D0
:104560002B6038BD1C02002010B50C46B1F90E10AE
:1045700000F056F90028ABBF636DA3891B1823F424
:104580008053ACBF6365A38110BD2DE9F0411F4688
:104590008B89DB0505460C46164605D5022300220D
:1045A000B1F90E1000F028F9A389B4F90E1023F424
:1045B0008053A38132463B462846BDE8F04100F0D7
:1045C00069B810B50C46B1F90E1000F015F9431C8E
:1045D000A38915BF606523F4805343F48053A381FE
:1045E00018BFA38110BDB1F90E1000F0D3B80000C0
:1045F000F8B50E461446054618B183690BB9FFF7A6
:104600002BFB214B9C422AD16C68A369A360A38930
:104610001A072ED5236963B323692068C01A63691A
:10462000F6B29842374604DB21462846FFF7AAFA3D
:1046300028BBA368013BA36023685A1C22601E703C
:1046400063690130984204D0A389DB0719D50A2E8B
:1046500017D121462846FFF795FA90B10FE00B4B92
:104660009C4201D1AC68D0E7094B9C4208BFEC6882
:10467000CBE72146284600F01FF80028CCD04FF0A9
:10468000FF373846F8BD00BFD4490008F449000898
:10469000B449000838B5074C0546084611460022C3
:1046A00022601A46FEF7A0FD431C02D1236803B125
:1046B0002B6038BD1C020020324B70B51D680646C9
:1046C0000C4625B1AB6913B92846FFF7C5FA2E4B46
:1046D0009C420FD16C68B4F90C309AB215072CD4F7
:1046E000D00611D40922326043F04003A3814FF079
:1046F000FF3070BD254B9C4201D1AC68EBE7244BE9
:104700009C4208BFEC68E6E7510712D5616B41B1E6
:1047100004F14403994202D03046FFF793FB002393
:104720006363A38923F02403A381002363602369C7
:104730002360A38943F00803A38123694BB9A389AC
:1047400003F42073B3F5007F03D021463046FFF712
:1047500031FBA28912F001030CD00023A36063692E
:104760005B42A361236953B9B4F90C3013F08000A4
:10477000BAD170BD920758BF6369A360F2E7002009
:10478000F7E700BF0C000020D4490008F4490008F6
:10479000B449000838B5064C002305460846236096
:1047A000FEF74AFD431C02D1236803B12B6038BDDC
:1047B0001C02002038B5074C002305460846114668
:1047C0002360FEF73DFD431C02D1236803B12B603B
:1047D00038BD00BF1C02002038B5064C002305463A
:1047E00008462360FEF732FD431C02D1236803B163
:1047F0002B6038BD1C02002038B5074C0546084622
:104800001146002222601A46FEF722FD431C02D107
:10481000236803B12B6038BD1C020020704770472D
:1048200038B5074C054608461146002222601A4654
:10483000FEF7CCFC431C02D1236803B12B6038BDCA
:104840001C02002008B5062000F02CF80120FEF71D
:10485000B7FC1F2938B504460D4604D9162303605A
:104860004FF0FF3038BD426C12B152F821304BB9D5
:10487000204600F031F82A4601462046BDE838407F
:1048800000F018B8012B0AD0591C03D1162303607D
:10489000012038BD002442F82540284698470020D2
:1048A00038BD0000024B01461868FFF7D2BF00BFB9
:1048B0000C00002038B5074C002305460846114679
:1048C0002360FEF775FC431C02D1236803B12B6003
:1048D00038BD00BF1C020020FEF768BCF8B500BF61
:1048E000F8BC08BC9E467047F8B500BFF8BC08BCD1
:0448F0009E46704729
:1048F40002030405060708090A0B0C0D0E0F10101D
:104904000102030405060708090A0B0C0D0E0F101B
:104914000004080266696C74657220636F6E6669D0
:1049240067206572726F7221000000007374616603
:1049340066206572726F720A0D000000666F726DF8
:10494400206572726F720A0D0000000041434B2013
:104954006572726F720A0D00626974207265636514
:104964007373697665206572726F720A0D000000B8
:1049740062697420646F6D696E616E742065727211
:104984006F720A0D00000000435243206572726F7B
:10499400720A0D0000000000000000000102030480
:1049A40006070809000000000102030410000020AB
:1049B40000000000000000000000000000000000F3
:1049C40000000000000000000000000000000000E3
:1049D40000000000000000000000000000000000D3
:1049E40000000000000000000000000000000000C3
:1049F40000000000000000000000000000000000B3
:104A040000000000000000000000000000000000A2
:104A1400232D302B2000686C4C00656667454647A3
:104A24000030313233343536373839414243444526
:104A34004600303132333435363738396162636495
:044A440065660000A3
:104A4800C9010181B0B0A8800000000008B101814F
:104A5800B0B000840000000008B10181B0B000844B
:044A6800000000004A
:104A6C0004B8FF7F0100000098B8FF7FB0A9028056
:104A7C0030B9FF7FB0B0A88080B9FF7F0100000083
:104A8C008CB9FF7FB0B0AA80C4B9FF7FAE71B28081
:104A9C0094BAFF7F0100000090BAFF7FAB3F3880D3
:104AAC00E8BAFF7F01000000F4BAFF7FB0B0AA8023
:104ABC0030BBFF7F01000000E4BBFF7FAB0EB28078
:104ACC004CBCFF7FB0AF0A8014BFFF7F0100000019
:104ADC0018BFFF7FAB3F048058C1FF7F010000006F
:104AEC0034C3FF7F0084048048C3FF7F01000000B3
:104AFC0044C3FF7FB0AD04800CC6FF7FB0A8038019
:104B0C002CC6FF7F44FFFF7F30C6FF7F48FFFF7F2F
:104B1C003CC6FF7F0100000068E0FF7FB0AA018067
:104B2C000CE1FF7FB0A809804CE1FF7F0100000081
:104B3C000CE2FF7FB0B0A88020E2FF7F00FFFF7F78
:104B4C00C8E2FF7F01000000E8E3FF7FB0A91680F8
:104B5C0054E4FF7FB0AE2D80B0E5FF7F0100000074
:044B6C00B501000887
:044B700091010008A7
:104B7400010000001000000000127A001000002064
:104B840000000000D4490008F4490008B4490008B2
:104B94000000000000000000000000000000000011
:104BA4000000000000000000000000000000000001
:104BB40000000000000000000000000000000000F1
:104BC40000000000000000000000000000000000E1
:104BD40000000000000000000000000000000000D1
:0400000508003809AE
:00000001FF
