:020000040800F2
:1000000000300020594B000885440008894400084E
:10001000A5440008A9440008AD4400080000000001
:10002000000000000000000000000000B1440008D3
:10003000B544000800000000B9440008BD440008B1
:10004000A94B0008A94B0008A94B0008A94B0008C0
:10005000A94B0008A94B0008A94B0008A94B0008B0
:10006000A94B0008A94B0008A94B0008A94B0008A0
:10007000A94B0008A94B0008A94B0008A94B000890
:10008000A94B0008A94B0008A94B0008A94B000880
:10009000C1440008CD440008D9440008A94B000819
:1000A000A94B0008A94B0008A94B0008A94B000860
:1000B000A94B0008A94B000800000000A94B00084C
:1000C000A94B00080000000000000000A94B000838
:1000D00000000000A94B0008A94B0008A94B00082C
:1000E000A94B0008A94B0008000000000000000018
:1000F0000000000000000000000000000000000000
:1001000000000000000000000000000000000000EF
:100110000000000000000000A94B0008A94B0008E7
:1001200000000000000000000000000000000000CF
:1001300000000000000000000000000000000000BF
:10014000A94B0008A94B00080000000000000000B7
:10015000000000000000000000000000000000009F
:10016000000000000000000000000000000000008F
:10017000000000000000000000000000000000007F
:0801800000000000A94B00087B
:1001900010B5054C237833B9044B13B10448AFF3C1
:1001A00000800123237010BD7C06002000000000A9
:1001B000CC88000808B5034B1BB103490348AFF3D3
:1001C000008008BD0000000080060020CC880008E8
:1001D00001F0FF01102A2BDB10F0070F08D010F8F8
:1001E000013B013A8B422DD010F0070F42B3F6D1FC
:1001F000F0B441EA012141EA014122F007047FF015
:1002000000070023F0E80256083C85EA010586EA6B
:10021000010685FA47F5A3FA87F586FA47F6A5FAA7
:1002200087F68EB9EED1F0BC01F0FF0102F00702B3
:1002300032B110F8013B013A83EA010313B1F8D15E
:100240000020704701387047002D06BF354603383F
:10025000073815F0010F07D1013015F4807F02BF78
:10026000013015F4C03F0130F0BC0138704700BFC9
:10027000034613F8012B002AFBD1181A01387047E6
:1002800081F0004102E000BF83F0004330B54FEA47
:1002900041044FEA430594EA050F08BF90EA020FB4
:1002A0001FBF54EA000C55EA020C7FEA645C7FEA47
:1002B000655C00F0E2804FEA5454D4EB5555B8BF6A
:1002C0006D420CDD2C4480EA020281EA030382EADB
:1002D000000083EA010180EA020281EA0303362D6D
:1002E00088BF30BD11F0004F4FEA01314FF4801C40
:1002F0004CEA113102D0404261EB410113F0004F52
:100300004FEA03334CEA133302D0524263EB430308
:1003100094EA050F00F0A780A4F10104D5F1200EA6
:100320000DDB02FA0EFC22FA05F2801841F1000101
:1003300003FA0EF2801843FA05F359410EE0A5F1D5
:1003400020050EF1200E012A03FA0EFC28BF4CF006
:10035000020C43FA05F3C01851EBE37101F00045BC
:1003600007D54FF0000EDCF1000C7EEB00006EEBC9
:100370000101B1F5801F1BD3B1F5001F0CD3490853
:100380005FEA30004FEA3C0C04F101044FEA4452AA
:1003900012F5800F80F09A80BCF1004F08BF5FEA31
:1003A000500C50F1000041EB045141EA050130BD11
:1003B0005FEA4C0C404141EB010111F4801FA4F1B4
:1003C0000104E9D191F0000F04BF01460020B1FA09
:1003D00081F308BF2033A3F10B03B3F120020CDA41
:1003E0000C3208DD02F1140CC2F10C0201FA0CF01F
:1003F00021FA02F10CE002F11402D8BFC2F1200C84
:1004000001FA02F120FA0CFCDCBF41EA0C01904039
:10041000E41AA2BF01EB0451294330BD6FEA040482
:100420001F3C1CDA0C340EDC04F11404C4F120026D
:1004300020FA04F001FA02F340EA030021FA04F37F
:1004400045EA030130BDC4F10C04C4F1200220FAD6
:1004500002F001FA04F340EA0300294630BD21FA14
:1004600004F0294630BD94F0000F83F4801306BFDA
:1004700081F480110134013D4EE77FEA645C18BFCE
:100480007FEA655C29D094EA050F08BF90EA020F65
:1004900005D054EA000C04BF1946104630BD91EA5D
:1004A000030F1EBF0021002030BD5FEA545C05D160
:1004B0004000494128BF41F0004130BD14F580049F
:1004C0003CBF01F5801130BD01F0004545F0FE4113
:1004D00041F470014FF0000030BD7FEA645C1ABF48
:1004E000194610467FEA655C1CBF0B46024650EA7F
:1004F000013406BF52EA033591EA030F41F40021AB
:1005000030BD00BF90F0000F04BF0021704730B530
:100510004FF4806404F132044FF000054FF0000105
:1005200050E700BF90F0000F04BF0021704730B5C6
:100530004FF4806404F1320410F0004548BF40429B
:100540004FF000013EE700BF42004FEAE2014FEAF0
:1005500031014FEA02701FBF12F07F4393F07F4FCB
:1005600081F06051704792F0000F14BF93F07F4FFD
:10057000704730B54FF4607401F0004521F0004140
:1005800020E700BF50EA010208BF704730B54FF0C6
:1005900000050AE050EA010208BF704730B511F0CB
:1005A000004502D5404261EB41014FF4806404F103
:1005B00032045FEA915C3FF4DCAE4FF003025FEA85
:1005C000DC0C18BF03325FEADC0C18BF033202EB0D
:1005D000DC02C2F1200300FA03FC20FA02F001FA67
:1005E00003FE40EA0E0021FA02F11444C1E600BF06
:1005F00070B54FF0FF0C4CF4E06C1CEA11541DBFB9
:100600001CEA135594EA0C0F95EA0C0F00F0DEF883
:100610002C4481EA030621EA4C5123EA4C5350EA68
:10062000013518BF52EA033541F4801143F48013B9
:1006300038D0A0FB02CE4FF00005E1FB02E506F04A
:100640000042E0FB03E54FF00006E1FB03569CF09F
:10065000000F18BF4EF0010EA4F1FF04B6F5007FA5
:1006600064F5407404D25FEA4E0E6D4146EB060617
:1006700042EAC62141EA55514FEAC52040EA5E50A0
:100680004FEACE2EB4F1FD0C88BFBCF5E06F1ED84A
:10069000BEF1004F08BF5FEA500E50F1000041EB81
:1006A000045170BD06F0004646EA010140EA02002E
:1006B00081EA0301B4EB5C04C2BFD4EB0C0541EA50
:1006C000045170BD41F480114FF0000E013C00F365
:1006D000AB8014F1360FDEBF002001F0004170BD89
:1006E000C4F10004203C35DA0C341BDC04F11404A2
:1006F000C4F1200500FA05F320FA04F001FA05F22E
:1007000040EA020001F0004221F0004110EBD370FA
:1007100021FA04F642EB06015EEA430E08BF20EA26
:10072000D37070BDC4F10C04C4F1200500FA04F3C9
:1007300020FA05F001FA04F240EA020001F000415B
:1007400010EBD37041F100015EEA430E08BF20EACE
:10075000D37070BDC4F1200500FA05F24EEA020E16
:1007600020FA04F301FA05F243EA020321FA04F045
:1007700001F0004121FA04F220EA020000EBD370FC
:100780005EEA430E08BF20EAD37070BD94F0000FFC
:100790000FD101F00046400041EB010111F4801F30
:1007A00008BF013CF7D041EA060195F0000F18BFE1
:1007B000704703F00046520043EB030313F4801F1D
:1007C00008BF013DF7D043EA0603704794EA0C0FD7
:1007D0000CEA135518BF95EA0C0F0CD050EA4106ED
:1007E00018BF52EA4306D1D181EA030101F000416A
:1007F0004FF0000070BD50EA410606BF1046194692
:1008000052EA430619D094EA0C0F02D150EA01369D
:1008100013D195EA0C0F05D152EA03361CBF1046DE
:1008200019460AD181EA030101F0004141F0FE417D
:1008300041F470014FF0000070BD41F0FE4141F401
:10084000780170BD70B54FF0FF0C4CF4E06C1CEA01
:1008500011541DBF1CEA135594EA0C0F95EA0C0FB6
:1008600000F0A7F8A4EB050481EA030E52EA033571
:100870004FEA013100F088804FEA03334FF0805592
:1008800045EA131343EA12634FEA022245EA1115BF
:1008900045EA10654FEA00260EF000419D4208BF70
:1008A000964244F1FD0404F5407402D25B084FEA1D
:1008B0003202B61A65EB03055B084FEA32024FF4C9
:1008C00080104FF4002CB6EB020E75EB030E22BF26
:1008D000B61A754640EA0C005B084FEA3202B6EBE6
:1008E000020E75EB030E22BFB61A754640EA5C0095
:1008F0005B084FEA3202B6EB020E75EB030E22BF25
:10090000B61A754640EA9C005B084FEA3202B6EB25
:10091000020E75EB030E22BFB61A754640EADC00E4
:1009200055EA060E18D04FEA051545EA16754FEA46
:1009300006164FEAC30343EA52734FEAC2025FEA64
:100940001C1CC0D111F4801F0BD141EA00014FF0F3
:1009500000004FF0004CB6E711F4801F04BF0143C4
:100960000020B4F1FD0C88BFBCF5E06F3FF6AFAEE0
:10097000B5EB030C04BFB6EB020C5FEA500C50F170
:10098000000041EB045170BD0EF0004E4EEA1131F3
:1009900014EB5C04C2BFD4EB0C0541EA045170BDFA
:1009A00041F480114FF0000E013C90E645EA060E3E
:1009B0008DE60CEA135594EA0C0F08BF95EA0C0F6C
:1009C0003FF43BAF94EA0C0F0AD150EA01347FF4B4
:1009D00034AF95EA0C0F7FF425AF104619462CE78B
:1009E00095EA0C0F06D152EA03353FF4FDAE1046EE
:1009F000194622E750EA410618BF52EA43067FF43F
:100A0000C5AE50EA41047FF40DAF52EA43057FF4CE
:100A1000EBAE12E74FF0FF3C06E000BF4FF0010CD9
:100A200002E000BF4FF0010C4DF804CD4FEA410C3D
:100A30007FEA6C5C4FEA430C18BF7FEA6C5C1BD00A
:100A400001B050EA410C0CBF52EA430C91EA030F8B
:100A500002BF90EA020F0020704710F1000F91EAE8
:100A6000030F58BF994208BF90422CBFD8176FEAB6
:100A7000E37040F0010070474FEA410C7FEA6C5C84
:100A800002D150EA013C07D14FEA430C7FEA6C5C8B
:100A9000D6D152EA033CD3D05DF8040B704700BFB7
:100AA0008446104662468C461946634600E000BF05
:100AB00001B5FFF7B7FF002848BF10F1000F01BDD7
:100AC0004DF808EDFFF7F4FF0CBF012000205DF8A2
:100AD00008FB00BF4DF808EDFFF7EAFF34BF012027
:100AE00000205DF808FB00BF4DF808EDFFF7E0FFC0
:100AF00094BF012000205DF808FB00BF4DF808ED11
:100B0000FFF7CEFF94BF012000205DF808FB00BF77
:100B10004DF808EDFFF7C4FF34BF012000205DF859
:100B200008FB00BF4FEA410C7FEA6C5C02D150EA3F
:100B3000013C0AD14FEA430C7FEA6C5C02D152EAD5
:100B4000033C02D14FF0000070474FF001007047A6
:100B50004FEA410212F5001215D211D56FF47873E5
:100B6000B3EB625212D94FEAC12343F0004343EA88
:100B7000505311F0004F23FA02F018BF4042704763
:100B80004FF00000704750EA013005D111F00040ED
:100B900008BF6FF0004070474FF00000704700BF83
:100BA00053B94AB9002908BF00281CBF4FF0FF31D4
:100BB0004FF0FF3001F0F6B8ADF1080C6DE904CE4E
:100BC00000F006F8DDF804E0DDE9022304B0704728
:100BD0002DE9F0478C460D460446089E002B51D166
:100BE0008A4217466DD9B2FA82FEBEF1000F0BD0D1
:100BF000CEF1200C01FA0EF520FA0CFC02FA0EF7E9
:100C00004CEA050C00FA0EF44FEA174A250CBCFB1F
:100C1000FAF81FFA87F90AFB18CC45EA0C4508FBDD
:100C200009F3AB420AD9ED1908F1FF3280F02381B4
:100C3000AB4240F22081A8F102083D44ED1AA4B273
:100C4000B5FBFAF00AFB105544EA054400FB09F92C
:100C5000A14509D9E41900F1FF3380F00A81A145CB
:100C600040F2078102383C44A4EB090440EA084002
:100C70000021002E61D024FA0EF40023346073604A
:100C8000BDE8F0878B4207D9002E54D0002186E8BA
:100C900021000846BDE8F087B3FA83F1002940F04F
:100CA0008E80AB4202D3824200F2FA80841A65EB56
:100CB00003050120AC46002E3FD086E81010BDE8A9
:100CC000F08712B90127B7FBF2F7B7FA87FEBEF13A
:100CD000000F34D1EB1B3A0C1FFA87FC0121B3FB48
:100CE000F2F8250C02FB183345EA03450CFB08F328
:100CF000AB4207D9ED1908F1FF3002D2AB4200F246
:100D0000D1808046ED1AA3B2B5FBF2F002FB10557C
:100D100043EA05440CFB00FCA44507D9E41900F1A3
:100D2000FF3302D2A44500F2B8801846A4EB0C04AD
:100D300040EA08409DE731463046BDE8F087CEF1F5
:100D4000200405FA0EF307FA0EF720FA04F83A0C1D
:100D500025FA04F448EA0308B4FBF2F14FEA184517
:100D600002FB11441FFA87FC45EA044501FB0CF322
:100D7000AB4200FA0EF409D9ED1901F1FF3080F011
:100D80008A80AB4240F2878002393D44EB1A1FFA59
:100D900088F5B3FBF2F002FB103345EA034500FB94
:100DA0000CF3AB4207D9ED1900F1FF386FD2AB421B
:100DB0006DD902383D44EB1A40EA01418FE7C1F199
:100DC000200722FA07F88B4005FA01F448EA0303EA
:100DD00020FA07FE4FEA134CFD404EEA040EB5FB25
:100DE000FCF94FEA1E440CFB19551FFA83F844EA3C
:100DF000054509FB08F4AC4202FA01F200FA01FAD7
:100E000008D9ED1809F1FF3043D2AC4241D9A9F11C
:100E100002091D442D1B1FFA8EFEB5FBFCF00CFBD6
:100E200010554EEA054400FB08F8A04507D9E41820
:100E300000F1FF3529D2A04527D902381C4440EAE9
:100E40000940A4EB0804A0FB02894C45C6464D4668
:100E500015D312D056B1BAEB0E0364EB050404FAB5
:100E600007F7CB401F43CC40376074600021BDE8DA
:100E7000F0871846F8E69046E0E6C245EAD2B8EBBD
:100E8000020E69EB03050138E4E72846D7E7404640
:100E900091E78146BEE7014678E702383C4445E7E2
:100EA000084608E7A8F102083D442BE703685A000A
:100EB0004CBF43F0004323F000431844704700BF89
:100EC00061B32DE9F84F01F1FF3A90460646D1464D
:100ED000002707EB090404EBD4746410E5007119D2
:100EE0000846FFF7E3FFA245834605F108003044BA
:100EF00009D0FFF7DBFFC34500F1FF3005D84045BF
:100F000009D2671CE5E7C34505D9A74202D004F121
:100F1000FF39DEE700210846BDE8F88F0846704734
:100F2000012807D0022807D0044B00280CBF184620
:100F30000020704702487047024870472516000895
:100F4000291600082D16000830B5244B83B004463E
:100F50008D1E7BB301A92846AFF3008020B3019911
:100F60002A46FFF7ADFF0146F0B1FFF79FFF4B6840
:100F7000A064012B12D0002B01F1040020DBFFF74D
:100F800095FF0023E06423650368002B1CDBFFF75B
:100F90008DFF00232061184603B030BD002323617C
:100FA0000523184603B030BD0023236109231846EA
:100FB00003B030BD0A490B48091AC9100191CFE7A7
:100FC0000123E0642365DFE7C3F30360FFF7A8FFB5
:100FD0000028206114BF00230923DCE70000000083
:100FE0008C8D00087C8C00080368DA0710B5044675
:100FF00006D49B0700F1480009D500F051FC236896
:10100000590709D51A070ED5DB0613D510BD00F018
:101010003FFC23685907F5D404F1D00000F048FCE8
:1010200023681A07F0D404F5A87000F049FC23687F
:10103000DB06EBD404F5E870BDE8104000F084BC9A
:10104000036803B103441846704700BF0920704786
:10105000704700BF70B504460D4608E02B6C636115
:101060002A462369214601209847082808D1296C7F
:101070002046FFF769FF06460028EFD007F0DBFBAC
:101080000728FBD13046296CFFF7E2FF281D00F04E
:10109000F3FB00BF2DE9F0470C1D054692460FCC2F
:1010A000ADF5727D03AE0FC60FCC0FC60FCC0FC6C9
:1010B00094E80F0002ACD5F80C80D5F8189086E8BB
:1010C0000F0000232846216C2360FFF73DFFBAF193
:1010D000000F074614BF0A2609267FB1A36B46F00E
:1010E00010018DE810022A46636401202B46C04798
:1010F00078BB38460DF5727DBDE8F087236C6B61D7
:101100004FF4F07221467AA806F01EFB2B697AAAEA
:10111000294630469847889B82468DE81002314622
:1011200063642A462B460120C04790B94FF4F07201
:101130007AA9204606F008FBBAF1080F06D1216C07
:101140002846FFF701FF09260746C6E7BAF1070F51
:1011500005D0092738460DF5727DBDE8F087384681
:10116000216CFFF775FF03A800F086FB406C704709
:10117000F0B5CB6B0B640E1D0F4604460FCEF9B0D5
:1011800001AD0FC50FCE0FC50FCE0FC596E80F00EE
:101190004FF0FF3685E80F00009606E023696A46A7
:1011A000214698470828054608D110992046FFF7A0
:1011B000CBFE0028F2D0092079B0F0BD6846FFF7D9
:1011C00013FF062DF7D139462046FFF743FF00BF36
:1011D00030B4DD6BC160826119461D64002230BCF1
:1011E00058E700BF70B5C66843690B6426B1012299
:1011F000FFF750FF07F01FFB03690A4604460D4640
:10120000014602209847072807D0082803D129461D
:101210002046FFF71FFF07F00EFB3046296CFFF753
:1012200017FF281D00F028FBC2681AB1CA6B0A64B8
:1012300000222FE79CE700BF704700BF836813B10F
:10124000014601201847704700B5042907D8DFE898
:1012500001F00309060909000BB90F2A05D902207C
:101260005DF804FB01205DF804FB00EB82021846E8
:101270005368019A13605DF804FB00BF10B584B099
:10128000002303AC0A4600941946FFF7DDFF0398DC
:1012900004B010BD00B5042907D8DFE801F0030948
:1012A000060909000BB90F2A05D902205DF804FBD5
:1012B00001205DF804FB019900EB8202096851608E
:1012C00018465DF804FB00BF10B584B004AC0023E1
:1012D00044F8042D0A4600941946FFF7DBFF04B0DA
:1012E00010BD00BFF0B5D36B1364151D07460E4645
:1012F0000FCDADF50F7D17AC0FC40FCD0FC40FCDC3
:101300000FC495E80F004FF0FF3584E80F001695E5
:1013100010E016A8FFF7D8FF314616A8B84716AA5E
:10132000694678B9049B08209847052804460AD0E6
:10133000092807D026996846FFF706FE6A460C2161
:101340000028E6D0092416A8FFF74EFE20460DF52A
:101350000F7DF0BD2DE9F04F0D46C96C8BB00C1D13
:10136000096807919146089400F0030B1E46002B74
:1013700060D10902032307918DF825608DF8243090
:101380002B6DBBF1020F08BFAC6B13F0010340D112
:10139000019300F008030393D4F80080B8F1000F24
:1013A00039D0022E43D0B4F8008067880434AB6C87
:1013B00027F0010A0F2148469A44FFF75FFF824554
:1013C00033D828F001039A4450452CBF0020012057
:1013D0007F0007F0020708F0010847EA0807012F1D
:1013E0003ED035D3022F1CD1236823F00042029255
:1013F000BBF1000F76D128B1039900297ED0002AD5
:1014000000F0A680002B77DB029B013304EB830402
:10141000C2E700230193022E3EDDFFF717FE0028EE
:1014200040D009200BB0BDE8F08F0020D0E76768FE
:101430000834BCE7022BA3DC0B0CDAB209048DF8EC
:101440002530022304EB820407918DF8243097E7BE
:10145000BBF1000F02D0002840F0BD8004349BE7B0
:10146000BBF1000F25D1A8B194E80C00991C4FEAFC
:10147000D272D6D005F158010133069100F0A38055
:10148000201DFFF7DDFD06AB01462846AFF30080C7
:10149000002877D108347FE707A9484600F0EEFA24
:1014A0000028BED1019B002B5CD108200BB0BDE809
:1014B000F08F0D2148462F6AFFF7E0FE8742E9D101
:1014C000AB6A9C42E6D12046FFF7F0FC0F210246B2
:1014D0004846FFF7F9FE48462A460021FFF7F4FE8A
:1014E00007209FE70D2148462F6AFFF7C7FE874276
:1014F00058D02368002B87DA043485E7029B3BB37E
:1015000005F15803271DCDF810B0DDF80C80DDF88B
:1015100008A00596A3461C4602E0B245B04616D088
:1015200038460694FFF78CFD06AB0146002228469C
:10153000AFF3008008F1010604370028EDD0029BCC
:10154000059E43455C46DDF810B0D2D100E05C4614
:1015500048460D21FFF792FE069B2862AC626B6243
:1015600006205FE70F214846FFF788FE0E2102465E
:101570004846FFF7A9FE4846294A0F21FFF7A4FE77
:1015800007204FE707460D214846FFF777FE022F59
:1015900028621DD12B46069A43F82C2F6B62AC6251
:1015A00006203FE7AB6A9C42A3D104220027A31880
:1015B0000299A962EF622A636B632368BB421DDB59
:1015C0000123019320E748460D21FFF757FE2862CB
:1015D000069B6B62E3E72046FFF768FC043406468F
:1015E000AC632846AFF3008000283FF41AAF4846AA
:1015F00032460F21FFF768FE072013E70846013047
:1016000004EB8000FFF752FC0F2102464846FFF72B
:101610005BFE48462A463946FFF756FE072001E79B
:1016200000000000002395E6012393E6022391E6E3
:10163000F0B50446C5B004290DD8DFE801F0530326
:101640000C310F00012B4FEA124695B262D172198C
:10165000102A40F29B80022045B0F0BD002BFAD149
:10166000102AF8D82368D80600F1C68022AE30468A
:10167000019200F073F9A06B019A0023012505FA8D
:1016800003F1114203D0016846F8231004300133FE
:10169000042BF4D1A063304600F056F90020DBE7BC
:1016A000032BD8D1150C97B2EB19102BD3D8236884
:1016B0001E0700F1B58022AE304600F023F9ED00A0
:1016C000A36B4FB1043D711903EBC70053F8042B12
:1016D00041F8042F8342F9D13046A36300F0F0F8BB
:1016E0000020B9E7002BB6D1A56B97B2201D0126CB
:1016F00006FA03F1394203F1010302D029680160BF
:101700000435102B00F10400F2D112F400503BD14B
:10171000A563A1E7052B9ED17719202F9BD80F2E0B
:1017200066D92F46002D3AD12A460027002AA06B01
:1017300072DD00EBC202014644A800EBC6008C3803
:1017400051F8045B40F8045F9142F9D1084697B123
:10175000102E324644A938BF102201EBC202A2F576
:10176000C4727900043A00EB810150F8045B42F83E
:10177000045F8842F9D1012B48D00F2EA16333D9E1
:1017800017B102A800F094F8002065E70F2E3FF68D
:1017900062AF00272268D10717D4002F60D02268DB
:1017A000510745D4012B4DD00F2E06D822A8019306
:1017B00000F07AF8019B002FB6D002A8019300F048
:1017C0007BF8019BC6F11002B0E722F00101052B66
:1017D0002160019320463BD022F0030240F8482BC1
:1017E00000F05AF8019BD8E722A800F059F8C7E7A3
:1017F000102FCED9103FCDE723F01003236004F55E
:10180000E870019200F0AAF8019A2FE70431A16371
:1018100022A800F03DF8B7E7002F99D10146AAE7CA
:1018200023F00803236004F5A87000F06BF842E78A
:10183000204622F0040240F8D02B019300F03CF83F
:10184000019BAFE722A8019300F026F8019BB9E7BE
:1018500041F0020140F8481B00F026F8019B9CE78C
:10186000012B03D00F2E3FF65FAF9FE722A8019315
:1018700000F012F8019B57E700F1340191E83800BD
:101880009C46A6464CF8045D90E8FF0FE54600BD77
:1018900090EC210B704700BF80EC210B704700BF1C
:1018A00090EC200B704700BF80EC200B704700BF0E
:1018B000D0EC200B704700BFC0EC200B704700BF7E
:1018C000F0EC0201F0EC0211F0EC0221F0EC02313C
:1018D000F0EC0241F0EC0251F0EC0261F0EC02712C
:1018E000F0EC0281F0EC0291F0EC02A1F0EC02B11C
:1018F000F0EC02C1F0EC02D1F0EC02E1F0EC02F10C
:10190000704700BFE0EC0201E0EC0211E0EC0221C4
:10191000E0EC0231E0EC0241E0EC0251E0EC02616B
:10192000E0EC0271E0EC0281E0EC0291E0EC02A15B
:10193000E0EC02B1E0EC02C1E0EC02D1E0EC02E14B
:10194000E0EC02F1704700BFB0FC0181B0FC0191F6
:10195000B0FC01A1B0FC01B1704700BFA0FC018147
:10196000A0FC0191A0FC01A1A0FC01B1704700BF47
:10197000EC4600B52DE900502DE9FF1F4FF00003A4
:101980002DE90C0001A9FFF7F3FBDDF840E012B0F0
:10199000704700BFEC4600B52DE900502DE9FF1F50
:1019A0004FF000032DE90C0001A9FFF71BFCDDF847
:1019B00040E012B0704700BFEC4600B52DE9005082
:1019C0002DE9FF1F4FF000032DE90C0001A9FFF7DF
:1019D0002BFCDDF840E012B0704700BFEC4600B5CC
:1019E0002DE900502DE9FF1F4FF000032DE90C00F9
:1019F00001ABFFF7EDFBDDF840E012B0704700BF30
:101A0000EC4600B52DE900502DE9FF1F4FF0000313
:101A10002DE90C0001AAFFF765FCDDF840E012B0EB
:101A2000704700BF027A1AB9437A43B9B0207047B1
:101A30000368013A02721A020260180E7047426887
:101A4000013B10B4437213680321141D01721A0282
:101A5000446002605DF8044B180E704700B585B015
:101A600003AA0023009219460C22FFF7EDFB03980E
:101A700005B05DF804FB00BFF0E700BF2DE9F043BF
:101A8000064685B00F464FF000083846FFF7CAFFFC
:101A9000B028044623D0050627D400230DF10C09F5
:101AA000194685000D22CDF800903046FFF7CCFB9B
:101AB000EDB2039BCDF80090600605F104054CBF24
:101AC0005D1BED18002319460D2230460395FFF7E4
:101AD000E1FB3846FFF7A6FFB0280446DBD1B8F19A
:101AE000000F00F0958000201CE000F0F003802B38
:101AF0005DD0902B19D0A02B2CD0B02B3FD0C02B79
:101B00006CD000F0F803D02B0BD100F007020132AB
:101B100042F40022052301213046FFF789FD002809
:101B2000B3D0092005B0BDE8F08300F00D030D2B04
:101B3000F7D003AD002300F00F02194600953046A0
:101B4000FFF782FB0023009519460D223046FFF770
:101B5000A1FB9AE7C24302F007034FF47F621A41E8
:101B6000010702F47F624FF0000348BF42F4804255
:101B700019463046FFF75CFD0028D2D185E7B12831
:101B800057D0B22868D0B32800F0958000F0FC034D
:101B9000B42BC6D000F007020132012342F4002228
:101BA00019463046FFF744FD0028BAD16DE73846A4
:101BB000FFF738FF24020443B4F5004FB1D02401ED
:101BC0000023A2B219463046FFF732FD0028A8D103
:101BD00014F4004F18BF4FF0010856E7C6287DD017
:101BE000C72800F0868000F0F803C02B00F0948036
:101BF000C82800F09F80C92893D13846FFF712FF0C
:101C0000020300F00F0002F470220130024381E76A
:101C100003AC43460E22414600943046FFF714FBC6
:101C20000094304643460F224146FFF733FB4046BF
:101C300078E73846FFF7F6FE00283FF472AF10F061
:101C4000F0037FF46EAF024619463046FFF7F0FC12
:101C500000287FF466AF18E700230DF10C090D2270
:101C60001946CDF800903046FFF7EEFA3846FFF7F8
:101C7000D9FE02064FF002040CD5039B00F07F0052
:101C8000A040034438460393FFF7CCFE030604F15B
:101C90000704F2D4039BCDF8009000F07F02A2402D
:101CA00003F501740023144419460D2230460394B1
:101CB000FFF7F0FAE9E63846FFF7B4FE010300F05B
:101CC0000F0001F47021421C01230A4330461946DB
:101CD000FFF7AEFC00287FF424AFD6E63846FFF7C6
:101CE000A1FE010300F00F0001F47021421C032348
:101CF000EBE73846FFF796FE00283FF412AF10F0EE
:101D0000F0037FF40EAF024604213046FFF790FC4B
:101D100000287FF406AFB8E600F00F02013203237B
:101D200042F4202219463046FFF782FC00287FF457
:101D3000F8AEAAE63846FFF775FE00F0F00200F0B4
:101D40000F031032013343EA0232E3E610B5C36CED
:101D500084B05A6803208DF80C00DC798DF80D40B2
:101D600012020833084601A901920293FFF786FE8A
:101D700004B010BD08B5FFF77FFE806C08BD00BF42
:101D800008B5FFF779FEC06CC37900EB830008301B
:101D900008BD00BF08B506F04EFD00BF08B5FFF74F
:101DA000F9FF00BF704700BF38B50E4A0E4B1278DE
:101DB0001B6805464FF47A70B0FBF2F0B3FBF0F00D
:101DC00000F0A6FB08B90F2D01D9012038BD04464B
:101DD000024629464FF0FF3000F058FB034B2046E7
:101DE0001D6038BD00000020080000200400002015
:101DF000074A08B5136843F010031360032000F08E
:101E000033FB0020FFF7D0FF02F024FB002008BDC9
:101E100000200240034A044B11681B780B441360F6
:101E2000704700BFF806002000000020014B186832
:101E3000704700BFF806002038B50446FFF7F6FFEC
:101E4000631C054602D0044B1B781C44FFF7EEFFD1
:101E5000401B8442FAD838BD0000002000287CD006
:101E600090F8203070B50446002B73D022681368B8
:101E700023F002031360FFF7D9FF054604E0FFF7E4
:101E8000D5FF401B0A285CD823685A689107F6D40E
:101E90001A6842F001021A60FFF7C8FF054604E025
:101EA000FFF7C4FF401B0A284BD823685A68D207A3
:101EB000F6D5227E012A1A680CBF42F0800222F079
:101EC00080021A60627E012A1A680CBF42F040024A
:101ED00022F040021A60A27E012A1A680CBF42F06A
:101EE000200222F020021A60E27E012A1A680CBF4A
:101EF00022F0100242F010021A60227F012A1A68B2
:101F00000CBF42F0080222F008021A60627F012A28
:101F10001A680CBF42F0040222F004021A60A268A0
:101F2000E66825696069616832432A4302430139E2
:101F30000A4301250021DA610846616284F82050D5
:101F400070BD636A052243F400336362012084F8A4
:101F5000202070BD02F01EF888E70120704700BF06
:101F600090F82030013B012B05D9436A43F48023CC
:101F700043620120704703684869D3F8002242F0A9
:101F800001022DE9F041CE69C3F80022012500F0DD
:101F90001F02D3F81C4205FA02F2D5432C40C3F8C5
:101FA0001C42B6B3012E15D1D3F80C620F68B1F8FC
:101FB00004C0B1F80CE003EBC00442EA06008E68EE
:101FC000C3F80C024CEA07474EEA0646C4F84072D2
:101FD000C4F844628869A0BBD3F804022840C3F85F
:101FE00004020869A8BBD3F814022840C3F81402FD
:101FF000096A012904D1D3F81C120A43C3F81C2230
:10200000D3F8002222F00102C3F800220020BDE82C
:10201000F081D3F80C72CE68B1F804E00C8803EBC1
:10202000C00805EA07008F68C3F80C0288694EEA09
:10203000064644EA0744C8F84062C8F8444200280B
:10204000CAD0D3F804021043C3F804020869002878
:10205000C9D0D3F814021043C3F81402C8E700BF74
:1020600038B590F82030012B05D0436A43F40023A3
:102070004362012038BD0268022380F820301368D3
:1020800023F0010313600446FFF7D0FE054604E089
:10209000FFF7CCFE401B0A2807D823685B6813F0C3
:1020A0000103F5D16362184638BD636A052243F423
:1020B00000336362012084F8202038BD2DE9F0410F
:1020C00090F82040013C012C06D9436A43F4802358
:1020D00043620120BDE8F081056800295AD02C69CF
:1020E000A4075AD00C012E19D6F8B07107F00407D6
:1020F0009760002F5FD1D6F8B0717F0D1760D6F8CA
:10210000B0C1D6F8B4E1D6F8B471D6F8B4612544BC
:10211000CCF3400CD5F8B881C2F80CC00EF00F0516
:10212000C7F30727360C15619761566183F8008065
:1021300002682244D2F8B821120A5A700268224476
:10214000D2F8B821120C9A7002682244D2F8B82151
:10215000120EDA7002682244D2F8BC211A710268A9
:102160002244D2F8BC21120A5A7102682244D2F8E1
:10217000BC21120C9A7102681444D4F8BC21120ECE
:10218000DA71026881B9D36843F020030846D3604E
:10219000BDE8F081EC68A607A4D1436A43F40013BC
:1021A00043620120BDE8F081136943F0200313610D
:1021B0000020BDE8F081D6F8B071FF0857609EE7B7
:1021C00090F82030013B012B05D9436A43F480236A
:1021D000436201207047026853691943516100202E
:1021E000704700BF704700BF704700BF704700BF17
:1021F000704700BF704700BF704700BF704700BF07
:10220000704700BF704700BF704700BF704700BFF6
:10221000704700BF2DE9F84F03685C69D3F804806C
:102220009F68D3F80CB0D3F81090D3F818A014F02E
:102230000105064625D017F0010540F09F804FF4B8
:1022400080414FF40052F8050DD533684FF480708B
:102250009860BB0500F1CA80780500F1DA803B0583
:1022600040F1EB800D46F8030BD533684FF4803214
:10227000B9039A6000F1B6807A0340F1CC8045F44E
:102280000045270702D51BF0100F71D1600703D559
:102290001BF0080F40F08280A10704D53368DB688B
:1022A0009A0740F09080630602D519F0100F59D1BB
:1022B000A70603D519F0080F40F08980E00604D581
:1022C00033681B69990740F08980A20302D518F092
:1022D000100F6AD1E30302D518F0080F6CD1270460
:1022E00005D518F0040F0BD1336804225A602DB1C4
:1022F000736A1D4375623046FFF78AFFBDE8F88FA9
:10230000E00504D51AF0010F18BF45F00105A1053D
:1023100004D51AF0020F18BF45F00205620504D576
:102320001AF0040F18BF45F004052305DCD51AF098
:10233000700AD9D0BAF1300F00F08D8070D9BAF19F
:10234000500F00F08580BAF1600F00F08780BAF17D
:10235000400F01D145F0400533689A6922F07002C0
:102360009A61C2E73368102245F480651A619FE7DD
:102370003368102245F40075DA6087E701229A601D
:10238000BB0737D47D073DD417F0080559D04FF46B
:10239000A0414FF440524FF4805554E7336808226F
:1023A000DA603046FFF72AFF76E7336810225A607A
:1023B0003046FFF729FF8DE7336808225A60304620
:1023C000FFF724FF8BE7304601F0DAFC6BE7336858
:1023D00008221A613046FFF715FF6FE73046FFF716
:1023E0000FFF72E73046FFF701FF4AE73046FFF77D
:1023F000FBFE38E7FFF7F6FE00254FF480414FF46F
:10240000005220E74FF490414FF420524FF4006502
:1024100019E7154627E73B030BD545F4803530E730
:10242000BAF1100F1DD0BAF1200F95D145F010056B
:1024300092E73046FFF7E0FE23E73046FFF7DAFE8B
:1024400011E7FFF7D5FE4FF480414FF40052FAE652
:1024500045F0800580E745F020057DE745F480756F
:102460007AE745F0080577E7074AD3684FF6FF019A
:102470000B40000243F0BF6300F4E06043F400331C
:102480000343D360704700BF00ED00E0184B70B409
:10249000DC68C4F30224C4F10706042E04F104032B
:1024A00028BF0426062B17D9033C0125A540013D72
:1024B0002A400123B340013B1940A140002841EAD2
:1024C00002010CDB00F1604000F561400901C9B276
:1024D00080F8001370BC704700221446E9E7054BF2
:1024E00000F00F0009010344C9B2197670BC7047AF
:1024F00000ED00E0FCEC00E000F01F0101234009CA
:10250000024A8B4042F82030704700BF00E100E0F3
:102510000138B0F1807F0ED2084B10B4084C5860DF
:10252000F02084F823000022072110469A601960E9
:102530005DF8044B70470120704700BF10E000E0D9
:1025400000ED00E08C460968002900F0D9802DE9F3
:10255000F04FDFF8C0E183B000254FF0010879E0CB
:102560004FEA45090323D0F800B003FA09F3DB432F
:1025700004F003060BEA030B06FA09F60AF1FF3A28
:1025800046EA0B06BAF1010F066040F29880C66871
:10259000DCF80820334002FA09F21A43E300C26073
:1025A00054D5584B574A9B6943F001039361936993
:1025B00025F0030606F1804603F0010306F5803698
:1025C000019305F00303019AB2689B004FF00F09D5
:1025D00009FA03F9B0F1904F22EA090A00F0868067
:1025E000494A904200F08480484A904200F083803B
:1025F000474A90420BBF4FF00309052209FA03F343
:1026000002FA03F343EA0A03B360DEF80030FA4348
:10261000E60354BF13403B43CEF80030DEF80430ED
:10262000A60354BF13403B43CEF80430DEF8083015
:10263000E60254BF13403B43CEF80830DEF80C30BE
:10264000A40254BF13403B43CEF80C30013531FA9D
:1026500005F348D008FA05F212EA0107F6D0DCF8D3
:10266000044024F0100ABAF1020F7FF479AF4FEA68
:10267000D50900EB890905F00703D9F820609B0014
:102680004FF00F0A0AFA03FB26EA0B0ADCF8106087
:1026900006FA03F343EA0A03C9F820304FEA450972
:1026A0000323D0F800A003FA09F3DB4304F0030688
:1026B00003EA0A0A06FA09F646EA0A060660866886
:1026C00006EA030ADCF80C6006FA09F646EA0A068E
:1026D0008660D0F804A0C4F300162AEA0202AE40D5
:1026E0001643466053E703B0BDE8F08F002389E747
:1026F00008FA03F386E74FF0020909FA03F381E7CA
:10270000704700BF00100240000400480008004865
:10271000000C0048000401400AB9816270478161E1
:10272000704700BF4369594041617047002800F07D
:10273000CB822DE9F0430368D90783B0044643D523
:10274000B7494A6802F00C02042A00F0B0814A68D6
:1027500002F00C02082A00F0A6816368B3F5803FFE
:1027600000F01882002B00F06181B3F5A02F00F07B
:102770009E82AB4B1A6822F480321A601A6822F4E7
:1027800080221A60A64DA268EB6A23F00F03134360
:10279000EB62FFF74BFB4FF400380746012605E0DC
:1027A000FFF744FBC01B642800F2798198FAA8F374
:1027B0002A6898FAA8F3B3FA83F303F01F0306FA22
:1027C00003F31342ECD023689F0742D5944A516823
:1027D00011F00C0F00F0C980516801F00C010829BC
:1027E00000F0BF802269002A00F0AE81012292FA37
:1027F000A2F3B3FA83F303F1845303F584139B002C
:1028000016461A60FFF712FB4FF002080746844D88
:1028100005E0FFF70BFBC01B022800F2408198FA8D
:10282000A8F32A6898FAA8F3B3FA83F303F01F0316
:1028300006FA03F31342ECD02968F82292FAA2F2C6
:102840006369B2FA82F221F0F80193400B432B60E6
:1028500023681D0721D458074DD5714BDA69D10083
:1028600040F1C1804FF000086E4D2B68DA0540F151
:102870000681E368012B00F09381002B00F02E818C
:10288000052B674B1A6A00F0B58122F001021A622B
:102890001A6A22F004021A6287E1A269002A7BD038
:1028A000012292FAA2F1604B5D4EB1FA81F10B4424
:1028B0009B0015461A60FFF7B9FA4FF00208074669
:1028C00005E0FFF7B3FAC01B022800F2E88098FA8F
:1028D000A8F398FAA8F398FAA8F3726A98FAA8F3FA
:1028E000B3FA83F303F01F0305FA03F31342E8D0AE
:1028F00023685807B1D4E3697BB3494D6A6802F095
:102900000C02082A44D0022B4FF0807300F07A8129
:1029100093FAA3F3B3FA83F303F1845303F5841317
:102920009B0000221A60FFF781FA4FF000740746FF
:10293000012605E0FFF77AFAC01B022800F2AF80FB
:1029400094FAA4F32A6894FAA4F3B3FA83F303F095
:102950001F0306FA03F31342ECD1002003B0BDE8D5
:10296000F0835268D6033FF53DAF022292FAA2F1FE
:102970002B49086892FAA2F2B2FA82F202F01F0220
:10298000012101FA02F2024239D022698A4236D08C
:10299000012003B0BDE8F083012595FAA5F1224B93
:1029A0001F4EB1FA81F10B449B004FF002081A60F0
:1029B000FFF73CFA074604E0FFF738FAC01B02288D
:1029C0006DD898FAA8F398FAA8F398FAA8F3726A5F
:1029D00098FAA8F3B3FA83F303F01F0305FA03F39D
:1029E0001342E9D184E7DA6942F08052DA61DB69A7
:1029F00003F080530193019B4FF0010834E7084D29
:102A0000F821286891FAA1F16269B1FA81F120F008
:102A1000F8008A4002432A601D077FF51CAF3CE79F
:102A2000001002400070004020819010A74D2B68DC
:102A300023F480332B602B6823F480232B60EB6A14
:102A4000A26823F00F031343EB62FFF7EFF94FF493
:102A500000380746012604E0FFF7E8F9C01B6428A8
:102A60001DD898FAA8F32A6898FAA8F3B3FA83F362
:102A700003F01F0306FA03F31342EDD1A3E62B681C
:102A800043F480732B60FFF7D1F906462B68DB0512
:102A90003FF5EFAEFFF7CAF9801B6428F6D9032093
:102AA00003B0BDE8F0834A68D2037FF556AE4FF419
:102AB000003292FAA2F18549086892FAA2F2B2FABB
:102AC00082F202F01F02012101FA02F202423FF4F7
:102AD0007BAE6268002A7FF477AE59E77B4D2B6AA4
:102AE00023F001032B622B6A23F004032B62FFF710
:102AF0009DF94FF002090746012613E099FAA9F360
:102B00006A6A99FAA9F3B3FA83F303F01F0306FA8A
:102B100003F313420ED0FFF789F941F28833C01B4B
:102B20009842BCD899FAA9F399FAA9F3002BE5D0F9
:102B30002A6AE6E7B8F1000F3FF4DDAE634AD369D5
:102B400023F08053D361D6E6012595FAA5F3B3FAB5
:102B500083F303F1845303F584139B004FF00208C1
:102B60001A60FFF763F9594E074604E0FFF75EF974
:102B7000C01B022893D898FAA8F3326898FAA8F3F1
:102B8000B3FA83F303F01F0305FA03F31342EDD105
:102B900023685EE64D4A136843F480331360F1E521
:102BA0004A4A136A43F001031362FFF73FF94FF0FB
:102BB00002090746454E012514E099FAA9F3726A05
:102BC00099FAA9F3B3FA83F303F01F0305FA03F3A9
:102BD0001342AFD1FFF72AF941F28833C01B984264
:102BE0003FF65DAF99FAA9F399FAA9F3002BE4D067
:102BF000326AE5E742F004021A621A6A42F0010200
:102C00001A62D2E793FAA3F3B3FA83F303F184537E
:102C100003F584139B0000221A60FFF707F94FF0B9
:102C200000780746012605E0FFF700F9C01B0228DF
:102C30003FF635AF98FAA8F32A6898FAA8F3B3FAE2
:102C400083F303F01F0306FA03F31342ECD16A681F
:102C5000636A216A22F474120B4313436B604FF0D2
:102C6000807393FAA3F3B3FA83F303F1845303F568
:102C700084139B004FF000741E60FFF7D7F8134ECB
:102C80000746012505E0FFF7D1F8C01B02283FF6F3
:102C900006AF94FAA4F3326894FAA4F3B3FA83F378
:102CA00003F01F0305FA03F31342ECD055E603F1DA
:102CB0008043A3F53C331A6842F480221A601A68F4
:102CC00042F480321A605DE5012070470010024036
:102CD00078B1654A136803F007038B420BD213687F
:102CE00023F007030B431360136803F007039942B3
:102CF00001D00120704703682DE9F0419F0706D5F8
:102D00005A4C8568626822F0F0022A436260DE074E
:102D100004460D4630D54268012A00F09380022A0D
:102D20000CBF4FF00073022393FAA3F14F490868D8
:102D300093FAA3F3B3FA83F303F01F03012101FA1B
:102D400003F3034228D0494E736823F0030313436F
:102D50007360FFF76BF841F28837804605E0FFF7B4
:102D600065F8A0EB0800B84269D87368626803F0A0
:102D70000C03B3EB820FF2D13B4A136803F0070355
:102D80009D420CD2136823F007032B431360136892
:102D900003F007039D4202D00120BDE8F0812368C3
:102DA000580706D53149E0684A6822F4E0620243D8
:102DB0004A60190707D52D4A2169536823F46053E7
:102DC00043EAC1035360294B5A6802F00C010829F9
:102DD00016D02749254BF0225B6892FAA2F2B2FA8C
:102DE00082F203F0F003D3402248234AC35C002060
:102DF00021FA03F31360FEF7D7FF0020BDE8F0814E
:102E00004FF4701191FAA1F1B1FA81F102F470104E
:102E1000C8401A4CD96A235C0F2090FAA0F0B0FA8F
:102E200080F001F00F01C1401548D203405C4ABF59
:102E30000F491449B1FBF0F101FB03F1CAE703208C
:102E4000BDE8F0814FF4003393FAA3F10749096814
:102E500093FAA3F3B3FA83F303F01F0302FA03F325
:102E60000B427FF470AF97E7002002400010024051
:102E700000127A0024890008080000200089000858
:102E80001089000800093D00144A536803F00C0142
:102E9000082921D14FF4701191FAA1F103F47010B7
:102EA000B1FA81F120FA01F10D48D26A405C0F219C
:102EB00091FAA1F1DB03B1FA81F102F00F024CBFEC
:102EC000084B094B22FA01F208498A5C48BFB3FB60
:102ED000F2F303FB00F07047024870470010024015
:102EE0000089000800127A0000093D0010890008DE
:102EF000084B4FF4E0625B6892FAA2F2B2FA82F2F7
:102F000003F4E063D3400449044ACB5C1068D84022
:102F1000704700BF001002403489000808000020FC
:102F2000084B4FF460525B6892FAA2F2B2FA82F256
:102F300003F46053D3400449044ACB5C1068D84082
:102F4000704700BF001002403489000808000020CC
:102F50002DE9F04304460068C50383B038D5564BCD
:102F6000DA69D1005ED5554D2B68DA054FF00006C1
:102F700067D5514D2B6A13F440731FD0616801F47B
:102F8000407293421BD0296A4FF4803321F4407081
:102F900093FAA3F24A4FB2FA82F23A4492004FF007
:102FA000010EC2F800E093FAA3F3B3FA83F33B44B3
:102FB0009B0000221A602862C80758D461683E4A04
:102FC000136A23F440730B431362002E4AD1206826
:102FD000C10706D5384AA168136B23F003030B43DE
:102FE0001363820606D5344AE168136B23F010039D
:102FF0000B43136303060DD410F4805007D02E4A00
:103000006169136B23F480730B431363002003B0D7
:10301000BDE8F083284A2169D36A23F4F8730B438F
:10302000D362E9E7DA69254D42F08052DA61DB6963
:1030300003F080530193019B2B68DA054FF00106E2
:1030400097D42B6843F480732B60FEF7EFFE07469E
:103050002B68DB058DD4FEF7E9FEC01B6428F7D989
:103060000320D4E7D36923F08053D361AFE77746D9
:10307000FEF7DCFE4FF00209804614E099FAA9F34E
:103080006A6A99FAA9F3B3FA83F303F01F0307FA04
:1030900003F3134292D1FEF7C9FE41F28833A0EB4D
:1030A00008009842DCD899FAA9F399FAA9F3002B01
:1030B000E4D02A6AE5E700BF00100240007000403B
:1030C00000819010002866D0F8B590F83D30044695
:1030D00003F0FF02002B39D023683049022284F824
:1030E0003D208B421A684FD0B3F1804F33D0A1F509
:1030F00094318B422FD001F59E318B4216D001F5D1
:1031000080618B4212D001F580618B420ED0A5699F
:10311000E068616822F080022A431A60D8629962EE
:1031200001225A61002084F83D20F8BD2069A16980
:1031300022F44072024322F080020A431A60E268DD
:10314000DA6262689A6262691A63E9E780F83C2091
:1031500001F076FCC0E7A6682069A169E7686568A8
:1031600022F07002324322F44072024322F08002C5
:103170000A431A600A4ADF6293429D62E3D002F575
:1031800080629342CCD1DEE7A5682069A16922F074
:1031900070022A43CCE70120704700BF002C014099
:1031A0000044014003680122186A02FA01F120EA92
:1031B000010010B418621A6A0E4C1143A34219623E
:1031C00012D00D4A93420FD002F5806293420BD089
:1031D00002F58062934207D01A685DF8044B42F012
:1031E000010200201A6070475A6C42F400425A648F
:1031F000F2E700BF002C014000400140F0B4046A37
:103200008F680E68194D24F001040462036A446853
:10321000826922F4803223F0020322F07302A84272
:1032200043EA070342EA060212D005F5A055A84278
:103230000ED005F58065A8420AD005F58065A84244
:1032400006D0496844608261F0BC41630362704704
:10325000CD688E6923F008032B434D6924F4407434
:10326000354323F004032C43EBE700BF002C01405F
:10327000F0B4046A8F680E68194D24F010040462DB
:10328000026A4468836923F0807322F0200223F4E9
:10329000E643A84242EA071243EA062310D0114D42
:1032A000A84214D0104DA84211D005F58065A8425F
:1032B0000DD0496844608361F0BC8163026270474D
:1032C000CD6822F0800242EA051222F040024D69E8
:1032D0008E6924F44064354344EA8504E9E700BF7D
:1032E000002C01400040014000440140F0B4046A59
:1032F0008F680E68194D24F480740462026A446871
:10330000C36923F4803322F4007223F07303A842CC
:1033100042EA072243EA060310D0114DA84214D016
:10332000104DA84211D005F58065A8420DD049681E
:103330004460C361F0BCC16302627047CD6822F48F
:10334000006242EA052222F480624D698E6924F40B
:103350004054354344EA0514E9E700BF002C01401E
:103360000040014000440140F0B4046A8F680E68D8
:10337000154D24F480540462026A4468C36923F042
:10338000807322F4005223F4E643A84242EA073253
:1033900043EA062312D005F5A055A8420ED005F544
:1033A0008065A8420AD005F58065A84206D0496824
:1033B0004460C361F0BC0164026270474D6924F44B
:1033C000804444EA8514F2E7002C0140F8B590F8F7
:1033D0003C30012B57D00D4602230121044680F8D2
:1033E0003C1080F83D30142A46D8DFE802F04E4504
:1033F00045456045454573454545854545459845A1
:1034000045450B000368D5F808E0186A2F68654E3B
:1034100020F480101862196A58685A6D22F0807280
:1034200021F4001122F4E042B34241EA0E5142EA93
:10343000072200F0B08006F5A056B34200F0AB8042
:1034400006F58066B34200F0A68006F58066B342BA
:1034500000F0A1806E6858605A65DE651962596D8A
:10346000286941F400615965596D21F480615965FD
:103470005A6D42EA00225A650123002084F83D304B
:1034800084F83C00F8BD0220F8BD29460068FFF72B
:10349000B5FE23682869996941F008019961996925
:1034A00021F0040199619A6902439A61E4E729468F
:1034B0000068FFF7DDFE23682869996941F400611F
:1034C0009961996921F4806199619A6942EA0022BF
:1034D0009A61D1E729460068FFF708FF2368286949
:1034E000D96941F00801D961D96921F00401D96194
:1034F000DA690243DA61BFE729460068FFF734FF63
:1035000023682869D96941F40061D961D96921F436
:103510008061D961DA6942EA0022DA61ACE70368C6
:10352000D5F808E0186A2F681E4E20F48030186223
:10353000196A58685A6D22F4803221F4003122F061
:103540007002B34241EA0E4142EA07021DD006F57D
:10355000A056B34219D006F58066B34215D006F5E1
:103560008066B34211D06E6858605A659E651962D4
:10357000596D286941F008015965596D21F0040120
:1035800059655A6D02435A6576E76E6920F48030BA
:1035900040EA0620E7E76E6920F4802040EA8620B2
:1035A00058E700BF002C014090F83C30012B16D0AA
:1035B000026870B40E4D53689468AA4212D00E6827
:1035C0008D6823F0700324F08001334300242943E5
:1035D0005360916080F83C40204670BC70470223E5
:1035E000184670474D6823F470032B43E7E700BF8C
:1035F000002C014090F83C30012B29D0F0B491E828
:10360000E000CB680C6923F440733B4323F48063F0
:10361000334323F400632B4323F4805302462343B4
:1036200048698E6A124D8C6923F40053034323F4D6
:1036300040431068334323F47023A84243EA044311
:1036400008D000214364F0BC084682F83C10704763
:10365000022070474D6ACC69096A23F4700343EA7B
:10366000055323F08073234323F000730B43E8E7F3
:10367000002C0140F0B50E4690F86910202983B067
:1036800002D0022003B0F0BD7EB372B31D4690F8A5
:103690006830012B0446F4D0002001212123E0668C
:1036A00084F8681084F869300192FEF7BFFB019A34
:1036B000A4F8502007462068A4F85220B4F85230ED
:1036C0009BB2F3B1B4F85230013B9BB2A4F8523034
:1036D000691C22D1C2691206FCD5A368B3F5805FCC
:1036E00037D0337803850136E8E70120CAE7C3699C
:1036F0005B060BD4DDB1FEF799FBC01B8542206849
:1037000015D3691CF3D1C3695A06FCD520230020C8
:1037100084F8693084F86800B4E7C3691B06DCD418
:103720002DB1FEF783FBC01B85422068D0D2036811
:1037300023F4D07303608368202223F00103002167
:10374000836084F86920032084F8681084F86A2074
:1037500098E72369002BC4D136F8023BC3F3080372
:103760000385ABE72DE9F041884690F86A102029DF
:1037700082B003D0022002B0BDE8F081B8F1000FA2
:1037800040D0002A3ED01D4690F86830012B0446F8
:10379000F0D0222300200121E06684F8681084F82C
:1037A0006A300192FEF742FBA368019AA4F8582000
:1037B000B3F5805F0746A4F85A2059D0002B4DD1AD
:1037C0002369002B50D07F26A4F85C60B4F85A001F
:1037D00080B200283CD0B4F85A30013B9BB2A4F828
:1037E0005A30691C20680FD1C2699206FCD5A368C3
:1037F000B3F5805F24D0838C334088F8003008F123
:103800000108E3E70120B6E7C3699B06EFD42DB1B9
:10381000FEF70CFBC01B8542E3D22068036823F44B
:10382000D07303608368202223F0010300218360AA
:1038300084F86920032084F8681084F86A209AE7E5
:103840002369002BD7D1838C334028F8023BBDE796
:10385000202384F8680084F86A308CE7B3F1805F35
:103860000ED0B4F85C60B1E7FF26A4F85C60ADE769
:103870002369002BF8D140F2FF16A4F85C60A5E79D
:103880002369002B9FD03F26A4F85C609EE700BF11
:10389000436ADA0710B406D50168846A4A6822F4DC
:1038A000003222434A609C0706D50168C46A4A6810
:1038B00022F4803222434A60590706D50168046B1E
:1038C0004A6822F4802222434A601A0706D501681A
:1038D000446B4A6822F4004222434A60DC0606D563
:1038E0000168846B8A6822F4805222438A609906B8
:1038F00006D50168C46B8A6822F4005222438A60AC
:103900005A0609D50168046C4A6822F480122243E1
:10391000B4F5801F4A600BD01B0606D50268816C87
:10392000536823F400230B4353605DF8044B704746
:103930004A68446C22F4C00222434A60ECE700BFAC
:10394000002800F0AF80F8B590F86930044603F025
:10395000FF02002B31D0256827696669E169894A31
:10396000242384F869302868A36820F001002860C7
:1039700028683B43334302400B4313432B606A6880
:10398000E668A369276A804822F4405232436A609D
:10399000AA683B4322F4306213438542AB606FD088
:1039A0007A4B9D420ED003F580639D420AD0B1F55B
:1039B000004F00F0A2800120F8BD80F8682001F0DF
:1039C00095F8C8E7B1F5004F00F09480FFF790FA42
:1039D000626800EB5203B3FBF2F39BB2EB60636AE5
:1039E000002B49D123685A6822F490425A609A68A1
:1039F00022F02A029A601A68002142F001021A603D
:103A0000E166FEF713FA23681A68110706460BD41D
:103A10001A68520724D42023002084F8693084F8DF
:103A2000680084F86A30F8BDDD6915F40015EFD13F
:103A3000FEF7FCF9801BB0F1007F2368F4D31A680D
:103A400022F4D0721A609A68202122F001029A6052
:103A5000032084F8691084F8685084F86A10F8BD6F
:103A6000DD6915F48005D6D1FEF7E0F9801BB0F1D1
:103A7000007F2368F4D3E2E72046FFF709FFB1E7B0
:103A8000434B444A1B6B03F00303B1F5004FD35C77
:103A90003BD1082B34D8DFE803F02D2A203315332F
:103AA00033330700012070476268530803F5803301
:103AB000B3FBF2F39BB223F00F02C3F342031343B1
:103AC000EB608CE7FFF7E0F962682568530803EBC9
:103AD0004003B3FBF2F39BB2EDE76268530803F5D2
:103AE000740303F51053B3FBF2F39BB2E3E7FFF764
:103AF00017FAE9E7FFF7FCF9E6E70023EB605AE77E
:103B0000214B0022DA600120F8BD082B3FF653AFAD
:103B100001A252F823F000BFCD3900083D3B000858
:103B20006D3B0008B7390008673B0008B73900084B
:103B3000B7390008B7390008533B0008FFF7F0F920
:103B40006268114900EB5203B3FBF2F39BB2CB6006
:103B500045E762680C49530803F50043B3FBF2F3F1
:103B60009BB2CB603BE7FFF78FF9E9E76268064954
:103B7000530803F5F40303F59053B3FBF2F39BB240
:103B8000CB602CE7F369FFEF0038014000440040B0
:103B9000001002402089000880B483B000AF786034
:103BA0007B6808330F4A12781A707B680833013338
:103BB0000C4A52781A707B6808330233094A9278AB
:103BC0001A707B6808330333064AD2781A707B6810
:103BD0009B6807EE903AB0EE670A0C37BD465DF879
:103BE000047B70479806002080B582B000AF7860F3
:103BF00087ED000A7B689B88013B072B59D801A2FF
:103C000052F823F0253C0008353C0008473C0008EA
:103C1000593C00086B3C00087D3C00088F3C0008C4
:103C2000A13C00087B681B6897ED000A184600F06D
:103C3000FAF83EE07B681B68103397ED000A1846DF
:103C400000F0F1F835E07B681B68203397ED000A3F
:103C5000184600F0E8F82CE07B681B68303397EDDD
:103C6000000A184600F0DFF823E07B681B68403349
:103C700097ED000A184600F0D6F81AE07B681B683A
:103C8000503397ED000A184600F0CDF811E07B683C
:103C90001B68603397ED000A184600F0C4F808E08E
:103CA0007B681B68703397ED000A184600F0BBF87C
:103CB00000BF00BF0837BD4680BD00BF80B582B0E1
:103CC00000AF7860104B1B78002B19D00F4B5B684E
:103CD0001B0A422B11D10D4B5B689BB203F00F0303
:103CE0009AB27B689A807868FFF756FFF0EE407AC8
:103CF000B0EE670A7868FFF777FF034B00221A706F
:103D000000BF0837BD4680BDBC0600209C060020D1
:103D100080B58AB000AF00233B60154B7B60002369
:103D2000BB60144BFB6000233B6100237B610123DC
:103D3000FB610023BB6101233B623B4619460E48F1
:103D4000FEF70EF90346002B14BF01230023DBB25C
:103D5000002B02D0094800F05BFF0748FEF780F90E
:103D600002210548FEF72CFA00BF2837BD4680BD6A
:103D70001000020010800700FC060020E888000800
:103D800080B582B000AF7860084B094A002178689E
:103D9000FEF794F9074B01221A7080210648FEF7BE
:103DA000C1FC00BF0837BD4680BD00BF980600209B
:103DB0009C060020BC0600200004004880B487B0A8
:103DC00000AF786187ED040AF960BA607B60FB6838
:103DD00007EE903AF8EEE77A97ED047A37EE677AD5
:103DE0003A6A7B68D31A07EE903AF8EEE77A67EE04
:103DF000276ABA68FB68D31A07EE903AF8EEE77ABA
:103E000086EEA77A7B6807EE903AF8EEE77A77EECF
:103E1000277AFDEEE77A17EE903A18461C37BD4632
:103E20005DF8047B704790B585B002AF786087ED90
:103E3000000A7B68DB68002B10D17B681B681C685C
:103E400040F28F13009300236422002197ED000AB3
:103E50007868FFF7B3FF0346636363E07B68DB6862
:103E6000042B10D17B681B681C6840F28F130093F1
:103E700000236422002197ED000A7868FFF79EFF77
:103E80000346A3634EE07B68DB68082B10D17B6898
:103E90001B681C6840F28F130093002364220021EA
:103EA00097ED000A7868FFF789FF0346E36339E07E
:103EB0007B68DB680C2B10D17B681B681C6840F2A8
:103EC0008F13009300236422002197ED000A786885
:103ED000FFF774FF0346236424E07B68DB68102B44
:103EE00010D17B681B681C6840F28F13009300237D
:103EF0006422002197ED000A7868FFF75FFF034610
:103F0000A3650FE07B681B681C6840F28F13009369
:103F100000236422002197ED000A7868FFF74EFF26
:103F20000346E36500BF0C37BD4690BD80B582B047
:103F300000AF78607B681A687B68DB6819461046BA
:103F4000FFF730F900BF0837BD4680BD0F4B104A60
:103F500070B501211A60042600224FF080754FF4DD
:103F6000C02418465E60DD601C619A605A611A7652
:103F70009A76DA761A7759765977FDF76FFF00B996
:103F800070BDBDE8704000F01BBA00BFFC06002009
:103F900000640040F0B50268234B89B000249A42C7
:103FA0000494039405940694079401D009B0F0BDDD
:103FB00003F5D63303A9DA6942F00072DA61DA69EF
:103FC00002F000720192019A5A6942F400325A6179
:103FD0005B6903F400330293032209234FF4C056B4
:103FE00002254FF0904007930692029F0396049596
:103FF000FEF7A8FA224621461420FEF747FA1420BD
:10400000FEF77AFA224621461520FEF73FFA1520E0
:10401000FEF772FA224621461620FEF737FA1620DE
:10402000FEF76AFA09B0F0BD0064004030B589B00F
:104030000024194B049403940594069407945A6938
:10404000164D42F480025A615A6902F480020092CD
:10405000009A5A6942F400325A615A6902F40032F5
:104060000192019A5A6942F480225A615B6903F411
:104070008023029322462846C021029BFEF74CFB78
:10408000C022012303A928460594069403920493B1
:10409000FEF758FA09B030BD001002400004004895
:1040A00080B485B000AFF860B9607A607B80FB684F
:1040B000BA681A60FB687A685A60FB687A881A8165
:1040C000FB68BA69DA60FB6818461437BD465DF8CC
:1040D000047B704780B485B000AFF860B9607A6047
:1040E000FB68183300221A605A60FB68002283F8CC
:1040F0002020FB68002283F82120FB68002283F83F
:104100002220FB6800225A62FB6800229A62FB6848
:10411000BA68DA62FB687A681A63FB681846143773
:10412000BD465DF8047B704780B584B002AF78600F
:1041300078680423009320232D4A2E49FFF7B0FF0F
:104140007B6803F11000002300931023284A2949BB
:10415000FFF7A6FF7B6803F12000042300930823E8
:10416000234A2549FFF79CFF7B6803F130000823B1
:1041700000934FF480634FF090422049FFF790FF87
:104180007B6803F14000042300934FF400734FF069
:1041900090421A49FFF784FF7B6803F15000002327
:1041A00000934FF480734FF090421449FFF778FF6B
:1041B0007B6803F160000C23009301230C4A0D4936
:1041C000FFF76EFF7B6803F1700008230093022362
:1041D000074A0849FFF764FF7B6880330022042107
:1041E0001846FFF777FF7B6818460837BD4680BD45
:1041F0000004004824070020A407002064070020D2
:1042000080B483B000AF786039607B683A681A6028
:104210007B6800229A807B684FF000029A607B687E
:1042200018460C37BD465DF8047B704780B5B0B0CA
:1042300000AF2C4B1B689B680021184600F000FD66
:10424000FDF7D6FD00F050F8FFF7F0FEFFF77EFE19
:1042500000F0D4F900F0A4FA00F03CFB00F028FCD8
:1042600007F10C031846FFF75FFF07F10C03184630
:10427000FFF75CFE07F10C0310331846FFF756FEFC
:1042800007F10C0320331846FFF750FE07F10C032B
:1042900030331846FFF74AFE07F10C034033184647
:1042A000FFF744FE07F10C0350331846FFF73EFEBC
:1042B00007F10C0360331846FFF738FE07F10C03D3
:1042C00070331846FFF732FEFFF722FD07F10C02AC
:1042D0003B4611461846FFF793FF3B461846FFF74B
:1042E000EDFCFAE70C00002080B596B000AF07F1B6
:1042F000300328220021184600F082FC07F11C033D
:1043000000221A605A609A60DA601A613B1D00222E
:104310001A605A609A60DA601A615A6101233B633D
:104320004FF480337B630023BB6301233B64022390
:10433000FB644FF480333B654FF4E0137B6507F17A
:1043400030031846FEF7F2F90346002B14BF012391
:104350000023DBB2002B01D000F032F80F23FB6109
:1043600002233B6200237B624FF48063BB62002325
:10437000FB6207F11C0302211846FEF7A9FC034665
:10438000002B14BF01230023DBB2002B01D000F06F
:1043900017F84FF480537B600023BB613B1D184628
:1043A000FEF7D6FD0346002B14BF01230023DBB22A
:1043B000002B01D000F004F800BF5837BD4680BD87
:1043C00080B500AF012280210248FEF7A5F900BFA9
:1043D00080BD00BF0004004800B583B002A94FF6BD
:1043E000FF7341F8040D01220348FFF743F90198D8
:1043F00003B05DF804FB00BFE407002000B585B002
:1044000004A9002301F8093D01224FF6FF7310486B
:10441000FFF7A8F99DF807200D2A0CD004A94FF644
:10442000FF7341F8042D0A480122FFF723F903988E
:1044300005B05DF804FB04A94FF6FF7341F8082DA1
:1044400003480122FFF716F90A228DF80720E5E755
:10445000E40700200A4B9A6942F001029A619A69C6
:1044600082B002F001020092009ADA6942F08052B2
:10447000DA61DB6903F080530193019B02B070475E
:1044800000100240704700BF08B5054C204640218F
:10449000FEF748F94FF41670FDF7CEFCF6E700BFC3
:1044A00000040048FEE700BFFEE700BFFEE700BFD4
:1044B000704700BF704700BF704700BFFDF7AABC40
:1044C0000148FDF7A7BE00BFFC0600200148FDF72C
:1044D000A1BE00BFFC0600200148FDF79BBE00BF47
:1044E000FC0600200120704708B500F05FFB162392
:1044F00003604FF0FF3008BD08B500F057FB1623EE
:104500000360FEE770B5161E07DD0C468D19FFF738
:1045100075FF04F8010BA542F9D1304670BD00BF0C
:1045200070B5161E07DD0C468D1914F8010BFFF748
:1045300053FFAC42F9D1304670BD00BF0A4A08B5FE
:10454000136873B118446946884202D8106018464F
:1045500008BD00F02BFB0C2303604FF0FF3318461F
:1045600008BD024B1360EDE7C00600206408002080
:104570004FF0FF30704700BF4FF400534B600020F6
:10458000704700BF01207047002070471749184B43
:10459000184A194810B4D1F8884044F47004C1F89E
:1045A00088401C6844F001041C605C6822405A602A
:1045B0001A6822F0847222F480321A601A6822F497
:1045C00080221A605A6822F4FE025A60DA6A22F0E7
:1045D0000F02DA621A6B002410404FF00062186379
:1045E0009C608A605DF8044B704700BF00ED00E0FE
:1045F000001002400CC07FF8CCFC00FF30B5002456
:104600009FB0624D059421462C2213A80494069471
:104610000C940D940E940F9410941194129400F035
:10462000EFFA5B49AC604FF4616240F28F132846A9
:104630002C616C61AC6185E80600EB60FEF742FD21
:1046400000285BD1002304A95048049305930693E6
:10465000FEF7AAFF00284ED1002360241A460CA9B9
:104660004A480D930E930F931093119312930C9449
:10467000FEF7ACFE00283BD104220CA94348FEF70C
:10468000A5FE002831D10CA908224048FEF79EFE65
:1046900040BB00234FF400544FF0007213A93B4875
:1046A0001393149315931693179319931A931C93BA
:1046B0001D9318941B92FEF79DFF08B1FFF780FE33
:1046C0002A68334900238A420893079309930A937F
:1046D0000B932BD0B2F1804F42D02E4B9A4210D088
:1046E0001FB030BDFFF76CFED3E7FFF769FECAE7E6
:1046F000FFF766FEC0E7FFF763FEADE7FFF760FE7A
:10470000A0E703F5033324485A6942F480225A6132
:104710005B6903F4802303933322022307A9039CDC
:10472000079208930B93FDF70DFFD9E703F1804340
:1047300003F504334FF4E0645A6942F400325A61DD
:104740005B69079403F4003301930222062307A94F
:104750004FF09040019D08920B93FDF7F3FEBFE7E9
:104760000E4B0D485A6942F480225A615B6903F48A
:104770008023029308240222012307A9029D0794A3
:1047800008920B93FDF7DEFEAAE700BF6407002046
:10479000002C0140000400400004004800100240CA
:1047A00030B5474C93B000234FF0804540F60F6181
:1047B000C722204625606160E260A36003930B93EB
:1047C0002361A361049305930C930D930E930F93B0
:1047D00010931193FEF776FC50BB002303A93848D1
:1047E00003930593FEF7E0FEF8B9002360250BA9BB
:1047F000042233480B950C930D930F93FEF7E6FDBF
:1048000008B1FFF7DDFD22682E4900238A42079395
:104810000693089309930A9322D0B2F1804F39D0BE
:10482000294B9A4207D013B030BDFFF7C9FDDCE732
:10483000FFF7C6FDD1E703F5033324485A6942F474
:1048400080225A615B6903F480230293332202239E
:1048500006A9029C069207930A93FDF773FEE2E70E
:1048600003F1804303F504334FF4E0645A6942F4E2
:1048700000325A615B69069403F40033009302220C
:10488000062306A94FF09040009D07920A93FDF77A
:1048900059FEC8E70E4B0D485A6942F480225A610E
:1048A0005B6903F48023019308240222012306A9F3
:1048B000019D069407920A93FDF744FEB3E700BFFB
:1048C000A4070020002C0140000400400004004820
:1048D0000010024030B5554C554B236093B0002377
:1048E00040F60F6140F28F1220466160E260A360E3
:1048F00003930B932361A361049305930C930D938E
:104900000E930F9310931193FEF7DCFB002846D112
:10491000002303A9454803930593FEF745FE0028AD
:104920003AD1002360251A460BA940480C930D93F9
:104930000F930B95FEF74AFD58BB04220BA93B4889
:10494000FEF744FD10BB08220BA93848FEF73EFDD8
:10495000C8B90BA90C223548FEF738FD08B1FFF79E
:104960002FFD2268334900238A4207930693089358
:1049700009930A932BD0B2F1804F42D02C4B9A422C
:1049800010D013B030BDFFF71BFDE2E7FFF718FDB5
:10499000D9E7FFF715FDD0E7FFF712FDC1E7FFF7F5
:1049A0000FFDB5E703F5033323485A6942F480222B
:1049B0005A615B6903F4802302933322022306A920
:1049C000029C069207930A93FDF7BCFDD9E703F119
:1049D000804303F504334FF4E0645A6942F4003233
:1049E0005A615B69069403F40033009302220623A4
:1049F00006A94FF09040009D07920A93FDF7A2FD93
:104A0000BFE70E4B0C485A6942F480225A615B6939
:104A100003F48023019308240222012306A9019DA7
:104A2000069407920A93FDF78DFDAAE7240700205C
:104A300000040040002C0140000400480010024027
:104A40000368184A934284B013D0B3F1804F1CD04E
:104A5000154A934201D004B07047144BDA6942F012
:104A60000202DA61DB6903F002030393039B04B0E3
:104A700070470E4B9A6942F400629A619B6903F495
:104A800000630193019B04B0704703F50433DA69B6
:104A900042F00102DA61DB6903F001030293029B39
:104AA000D9E700BF002C0140000400400010024084
:104AB0000C4B0D4A10B50C211A604FF4E134002262
:104AC00018465C6059619A60DA601A619A61DA612D
:104AD0001A625A62FEF734FF00B910BDBDE81040FB
:104AE000FFF76EBCE40700200044004070B5016889
:104AF000184A88B0002391420493039305930693C8
:104B0000079301D008B070BD03F1804303F504336F
:104B100003A9DA6942F40032DA61DA6902F4003298
:104B20000192019A5A6942F400325A615B6903F4B6
:104B3000003302930322072348F2040502244FF0B6
:104B40009040029E0395049406920793FDF7FAFCA9
:104B500008B070BD00440040DFF834D0002103E00D
:104B60000C4B5B58435004310B480C4B42189A4293
:104B7000F6D30B4A02E0002342F8043B094B9A4269
:104B8000F9D3FFF703FD00F017F8FFF74FFBFEE73F
:104B900000300020948D0008000000207C060020DA
:104BA0007C06002064080020FEE70000014B186826
:104BB000704700BF0C00002070B50D4E0D4CA41BBB
:104BC000A4100025A54209D10B4E0C4C03F07EFE2B
:104BD000A41BA4100025A54205D170BD56F82530B0
:104BE00098470135EEE756F8253098470135F2E74A
:104BF0008C8D00088C8D00088C8D0008908D00082D
:104C000002440346934200D1704703F8011BF9E7C1
:104C10000FB40A4B13B51C6824B1A36913B920461D
:104C200002F04EF905AB049AA1680193204600F00A
:104C3000DBF802B0BDE8104004B070470C00002063
:104C400000294FF480630CBF0222002200F000B85C
:104C50002DE9F7431D46604B1E6804460F469046FB
:104C600026B1B36913B9304602F02AF95B4B9C4276
:104C700066D17468B8F1020F06D0B8F1010F00F2E6
:104C8000A780002DC0F2A480636EDA0705D4A38943
:104C90009B0502D4A06D02F0D3FA2146304602F003
:104CA0007BF8616B41B104F14403994202D0304674
:104CB00002F0DCF9002363630023A3616360A3892E
:104CC000180603D52169304602F0D0F9A38923F4F0
:104CD0004A6323F00303B8F1020FA38172D001AB42
:104CE0006A462146304602F0ADFAA3891843A081F6
:104CF000002D2FD1009D284602F010FB074600280A
:104D000062D1DDF80090A94550D14FF0FF35002267
:104D1000A26004F14702226022610122B4F90C3042
:104D20006261626E43F00203D107A38104D49B0544
:104D300002D4A06D02F085FA284603B0BDE8F083E6
:104D4000274B9C4201D1B46894E7264B9C4208BF94
:104D5000F4688FE7002FCED0B36913B9304602F064
:104D6000AFF8009B27619D4218BFA38927601CBF35
:104D700043F40063A381B8F1010F08BFA389656103
:104D800004BF43F00103A381A38913F008021DD0DF
:104D9000DA0741BF00226D42A260A56158BFA5603D
:104DA000656E15F00105C2D00025C5E7484602F042
:104DB000B5FA07460028A8D0A38943F08003A38151
:104DC0004D46C9E70025A2E7A946F5E7A260E7E757
:104DD0004FF0FF35B0E700BF0C000020C489000889
:104DE000E4890008A48900082DE9F04FBDB0884689
:104DF00015461C461F46834602F012FA03680D93BF
:104E00001846FBF735FA0990BBF1000F05D0DBF827
:104E1000183013B9584602F053F8994B984537D1DA
:104E2000DBF80480D8F86430D80707D4B8F80C3021
:104E3000990503D4D8F8580002F002FAB8F90C30FA
:104E40009A0409D443F40053A8F80C30D8F864301D
:104E500023F40053C8F86430B8F80C301E0702D5AC
:104E6000D8F8103003BB4146584601F039F8D8B1A4
:104E7000D8F86430DD0707D4B8F80C309C0503D4AB
:104E8000D8F8580002F0DDF94FF0FF330A9326E01E
:104E90007C4B984502D1DBF80880C3E77A4B9845F4
:104EA00008BFDBF80C80BDE7B8F80C3003F01A023D
:104EB0000A2A18D1B8F90E20002A14DBD8F8642089
:104EC000D00705D4990503D4D8F8580002F0B9F9F1
:104ED00023462A464146584600F0C2FF0A900A98E7
:104EE0003DB0BDE8F08F9FED647B8DED067B002328
:104EF0002CAC1F9421932093059503931193109349
:104F00000A93059D2B4613F8012B12B1252A40F078
:104F10008380059BEE1A0DD084E84800219B334422
:104F20002193209B0133072B209377DC08340A9BC5
:104F300033440A932B78002B00F039870023691C37
:104F40008DF85F301A464FF0FF3A0B931D460A204A
:104F50004E1C09780596029102992039582900F2D1
:104F60001D84DFE811F0B3001B041B04B8001B0410
:104F70001B041B041B041B041B04BB0065001B0457
:104F8000C400C7001B04E400E700E700E700E700F7
:104F9000E700E700E700E700E7001B041B041B0431
:104FA0001B041B041B041B041B041B041B041B010C
:104FB00031011B0431011B041B041B041B04FA00F8
:104FC0001B041B0446031B041B041B041B041B04BF
:104FD000AD031B041B0493001B041B041B041B04D4
:104FE0001B041B041B041B041B041B040D016B008E
:104FF000310131013101FD006B001B041B04000174
:105000001B04280348037C0307011B048D031B04B6
:10501000AF031B041B04C7031D4673E71FAA4146C9
:10502000584602F0CCFE002840F099862CAC7EE772
:1050300001232B2205998BE70F46FBE70BB18DF877
:105040005F20AA0640F1B080073727F0070707F175
:105050000803D7E900670493002E77F1000306DA0E
:1050600076424FF02D0367EB47078DF85F30012341
:10507000D0E200BFAFF3008000000000000000009D
:10508000C4890008E4890008A48900080BB18DF8E0
:105090005F20A24B1193A90640F13183073727F017
:1050A000070707F10803D7E900670493EB070BD55F
:1050B00056EA070308D030238DF860309DF8083099
:1050C0008DF8613045F002050223A0E2002AB1D13B
:1050D00001232022AEE745F00105ABE73E680B96C1
:1050E000002E07F10401A7DA76420B960F4645F031
:1050F00004059FE705994E1C097802912A2910D0D2
:105100004FF0000A05960299303909293FF624AF7D
:1051100000FB0A1A05990E4616F8011B0291059626
:10512000F1E73968059641EAE17A043782E745F00C
:1051300080057FE700210B9102990B9E303900FB1F
:1051400006110B9105990E4616F8011B0291029962
:10515000059630390929EFD9FEE645F0080569E7DB
:1051600045F0400566E7059909786C2905D1059950
:105170000131059145F020055CE745F0100559E740
:105180003B1D049300263B688DF888308DF85F60E6
:105190004FF0010A08960DF188091EE10BB18DF858
:1051A0005F2045F010054CE715F0100F07F10403E0
:1051B00003D03E680493F7174EE73E68049315F05A
:1051C000400F18BF36B2F6E70BB18DF85F200737F6
:1051D00027F0070707F10803049397ED007B8DED97
:1051E000067B069B1293079B23F0004313934FF01B
:1051F000FF324B4BDDE91201FBF794FC002840F035
:10520000E3854FF0FF32464BDDE91201FBF76CFC02
:10521000002840F0D98500220023DDE90601FBF7D4
:1052200059FC10B12D238DF85F303E4B3E4A029958
:1052300025F080054729CCBF914699464FF0030AD7
:1052400000260896C9E0BAF1FF3F22D0029B23F066
:105250002003472B04D1BAF1000F08BF4FF0010A19
:1052600045F480731493079B002B15DA069B0E936D
:10527000079B03F100430F932D230C93029B23F014
:105280002007462F0ED0452F46D10AF101060221F4
:105290000AE04FF0060AE3E79DED067B00238DED63
:1052A0000E7BEAE7564603211DAB01931AAB009330
:1052B000324619AB9DED0E0B584600F00DFF472FFF
:1052C000814602D1EB0740F18C8509EB0603462F9E
:1052D000039311D199F80030302B09D1002200231B
:1052E000DDE90E01FBF7ECFB10B9C6F101061996DA
:1052F000039A199B1A44039200220023DDE90E0150
:10530000FBF7DEFB90B930221D9B039999420FD920
:10531000591C1D911A70F7E75646B8E750890008E6
:10532000FFFFEF7F4089000844890008039B1D931D
:105330001D9B472FA3EB0903039340F0F880199BB3
:10534000DF1C02DB9A4580F21F81029B023B029325
:10535000199A9DF808108DF86C10531E002B1993A4
:10536000B6BFC2F101032B222D22092B8DF86D202F
:1053700040F3FA800DF17B020A2693FBF6F006FB60
:1053800010333033092802F8013C02F1FF310346A3
:1053900000F3E380303301F8013C023A0DF16E0373
:1053A0000DF17B0082421946C0F0D980039A1BABF5
:1053B000CB1A012A109303EB020A03DC15F0010358
:1053C000089303D0099B9A44002308930C9B13B1C4
:1053D0002D238DF85F30149D002656453346B8BF07
:1053E00053460C939DF85F3013B10C9B01330C9323
:1053F00015F0020314931EBF0C9B02330C9315F09F
:105400008403159314D10B9B0C9A9F1A002F0FDD68
:10541000A84B2360102F00F3D381219B67601F44AA
:10542000209B21970133072B209300F3E081083460
:105430009DF85F3073B10DF15F032360012363605A
:10544000219B01332193209B0133072B209300F3F1
:10545000D8810834149B6BB118AB236002236360BE
:10546000219B02332193209B0133072B209300F3D0
:10547000D2810834159B802B14D10B9B0C9A9F1A58
:10548000002F0FDD8C4B2360102F00F3CE81219B6A
:1054900067601F44209B21970133072B209300F363
:1054A000DD810834A6EB0A06002E0FDD824F27604F
:1054B000102E00F3DD81209B2198666001330644A5
:1054C000072B2196209300F3EA810834E90500F1C7
:1054D000F081219B84E8000653442193209B0133F3
:1054E000072B209340F31B841FAA4146584602F025
:1054F00066FC002840F033842CAC680700F112846D
:105500000A9B0B9A0C998A42ACBF9B185B180A93B2
:10551000219B3BB11FAA4146584602F050FC00288F
:1055200040F01D8400232093049F2CACE9E4029BEF
:10553000652B7FF70DAF029B662B25D1199B002BA6
:105540001ADDBAF1000F01D1EE0702D5099A134412
:105550005344199A08929A4638E70A460DE712F81A
:10556000011B03F8011B1DE7302213448DF86E2048
:105570008DF86F301CA919E7BAF1000F01D1ED07C2
:1055800015D5099B0133E3E7199A039B9A4206DB81
:10559000E8070ED5099B134467220292D9E7039BC3
:1055A0000999002A0B44F7DCC2F10102F3E7012359
:1055B000CFE71346F0E70BB18DF85F2015F0200F11
:1055C00007F1040308D00A993A68CE170846314615
:1055D000C2E900011F4694E4E90603D53A680A9936
:1055E0001160F7E76A06F9D53A68BDF8281011800E
:1055F000F0E745F0100515F0200322D0073727F01B
:10560000070707F10803D7E9006704930023002286
:105610008DF85F20BAF1FF3F00F0E88325F08002AB
:10562000089256EA070240F0E683BAF1000F00F054
:10563000A980012B75D0022B00F090800026002756
:10564000DFE33A1D15F01001049202D03E680027F6
:10565000DDE715F04003F9D03E880027D6E73B1D73
:105660000493302378228DF86030144B3E681193F8
:10567000002745F002058DF8612002230292C6E75B
:105680003B1D0026BAF1FF3F0493D7F800908DF838
:105690005F600AD0524631464846FAF799FD002825
:1056A00000F08C80A0EB090ACBE54846FAF7E0FD54
:1056B0008246C6E57489000884890008618900086B
:1056C00045F01005AE0609D5073727F0070707F1A3
:1056D0000803D7E900670493012398E73B1D15F001
:1056E000100F049301D03E6802E06806FBD53E88A7
:1056F0000027F1E70BB18DF85F20A24BCAE43B1DF8
:1057000015F0100F049301D03E6802E06A06FBD545
:105710003E880027CAE44B4674E3002F08BF0A2ED8
:1057200005D20DF1F009303609F8416D85E30DF130
:10573000B009304639460A220023FBF731FA3032ED
:1057400009F8012D0023304639460A22FBF728FAD2
:1057500006460F4656EA0703EBD16EE30026002704
:105760000DF1B00906F00F03119AD35C09F8013D61
:10577000330943EA07733A091E46174656EA0703F8
:10578000F0D15AE33BB9E80705D50DF1F009302314
:1057900009F8413D51E30DF1B0094EE30BB18DF82D
:1057A0005F20029B002B00F002839DF808308DF8EB
:1057B000883000268DF85F600497E9E4064640E5EE
:1057C00010236360219B10332193209B0133072B0F
:1057D000209302DC0834103F1AE61FAA41465846BF
:1057E00002F0EDFA002840F0BA822CACF3E71FAAD1
:1057F0004146584602F0E3FA002840F0B0822CAC53
:1058000016E61FAA4146584602F0D9FA002840F091
:10581000A6822CAC1EE61FAA4146584602F0CFFADB
:10582000002840F09C822CAC24E610226260219A71
:1058300010322192209A0132072A209202DC083489
:10584000103F20E61FAA41465846149302F0B7FACB
:10585000002840F084822CAC149BF1E71FAA41463B
:10586000584602F0ACFA002840F079822CAC19E6D8
:1058700010236360219B10332193209B0133072B5E
:10588000209302DC0834103E11E61FAA4146584618
:1058900002F095FA002840F062822CACF3E71FAAD0
:1058A0004146584602F08BFA002840F058822CAC52
:1058B0000CE6029B652B40F3AD8100220023DDE95D
:1058C0000601FBF7FDF8002862D02F4B236001236F
:1058D0006360219B01332193209B0133072B20938D
:1058E00025DC0834199B039A934202DBEA077FF513
:1058F00004AE0D9B2360099B6360099A219B1344AE
:105900002193209B0133072B20931ADC0834039B3F
:105910005E1E002E7FF7F1AD1C4F4FF01009102EC8
:10592000276018DC6660219B1E442196D6E51FAADD
:105930004146584602F043FA002840F010822CAC51
:10594000D0E71FAA4146584602F039FA002840F035
:1059500006822CACDBE7219BC4F804901033219322
:10596000209B0133072B209302DC0834103ED6E73E
:105970001FAA4146584602F022FA002840F0EF8163
:105980002CACF3E76189000872890008848900085B
:10599000199B002B7ADC9D4B236001236360219BC4
:1059A00001332193209B0133072B209344DC0834DF
:1059B000199B23B9039B13B9EB077FF59EAD0D9B94
:1059C0002360099B6360099A219B13442193209BC8
:1059D0000133072B209339DC04F10803199E002EB4
:1059E00019DA8B4F76421024102E1F6038DC219A72
:1059F0005E601644209A21960132072A03F10803BB
:105A0000209208DD1FAA4146584602F0D8F9002826
:105A100040F0A5812CAB039A5A600399219AC3F8F0
:105A200000900A442192209A0132072A20923FF7DF
:105A30005BAD03F1080460E51FAA4146584602F039
:105A4000BEF9002840F08B812CACB1E71FAA41467B
:105A5000584602F0B4F9002840F081812CABBDE734
:105A6000219A5C6010322192209A0132072A2092FA
:105A700002DC0833103EB7E71FAA4146584602F041
:105A80009EF9002840F06B812CABF3E7089B039A4A
:105A90009342A8BF1346002B1E460BDD6360219B7B
:105AA000C4F8009033442193209B0133072B2093AB
:105AB00062DC0834089B002EA8BF9B1B002B1E46EF
:105AC0000FDD534F4FF0100A102E27605EDC219B34
:105AD00066601E44209B21960133072B20936CDCCB
